:020000040800F2
:1000000018050020A9010008FB1F0008BB16000806
:10001000F91F0008570700080D2400080000000021
:100020000000000000000000000000001F20000889
:1000300059070008000000001D20000821200008CA
:10004000C3010008C3010008C3010008C301000880
:10005000C3010008C3010008C3010008C301000870
:10006000C3010008C3010008C3010008C301000860
:10007000C3010008C3010008C3010008C301000850
:10008000C3010008C3010008C3010008000000000C
:10009000000000000000000000000000C301000894
:1000A000C3010008C3010008C3010008C301000820
:1000B000C3010008C3010008C3010008C301000810
:1000C000C3010008C3010008C3010008C301000800
:1000D000C3010008C3010008C301000800000000BC
:1000E000C3010008C3010008C301000800000000AC
:1000F000000000000000000000000000C301000834
:1001000000000000C3010008C3010008C30100088B
:1001100000000000000000000000000000000000DF
:10012000C3010008C3010008C3010008C30100089F
:10013000C3010008000000000000000000000000F3
:10014000000000000000000000000000C3010008E3
:10015000C3010008C3010008C3010008C30100086F
:10016000C3010008C30100080000000000000000F7
:10017000000000000000000000000000000000007F
:1001800000000000C30100080000000000000000A3
:10019000C3010008DFF80CD000F05CFA004800470B
:1001A0001D2D000818050020064880470648004716
:1001B000FEE7FEE7FEE7FEE7FEE7FEE7FEE7FEE717
:1001C000FEE7FEE7A9200008950100082DE9F05F91
:1001D0000546002092469B468846064681464024B6
:1001E0001BE0284641464746224600F06AF853463F
:1001F0005A46C01A914110D311461846224600F0C3
:1002000051F82D1A67EB01084F46224601200021C4
:1002100000F048F817EB00094E41201EA4F101043C
:10022000DFDC484631462A464346BDE8F09FD2B25D
:1002300001E000F8012B491EFBD270470022F6E7CF
:1002400010B513460A4604461946FFF7F0FF20464C
:1002500010BD00F0004230F000400AD0C10D01F5A1
:100260006071C0F3160042EA0151C2084007114311
:10027000704700200146704730B50B46014600200C
:100280002022012409E021FA02F59D4205D303FA58
:1002900002F5491B04FA02F52844151EA2F10102D9
:1002A000F1DC30BD202A04DB203A00FA02F1002004
:1002B00070479140C2F1200320FA03F319439040A4
:1002C0007047202A04DB203A21FA02F0002170470F
:1002D00021FA02F3D040C2F12002914008431946AE
:1002E00070472DE9FE4F804681EA0300C00F0C469F
:1002F000009021F0004123F00045B8EB0200A94135
:1003000005D24046214690461C460B46024623F045
:100310000040104347D0270DC7F30A00C3F30A512A
:100320000290401A019040286BDAC3F3130040F4A6
:10033000801B0098924620B10023D2EB030A63EBA6
:100340000B0B01985946C0F140025046FFF7AAFF37
:1003500006460D4650465946019A00F08DF910EBBD
:1003600008006141002487EA115284EAE7731A43C6
:1003700040D0009A62B3019A012A4FEA075215DC75
:10038000001B61EB02014FF0004202EA0752CDE987
:100390000042001C41F5801132462B4600F08DF9D9
:1003A00003B0BDE8F08F40462146F9E7001B61EB42
:1003B0000201001C41F5801300185B412018A2F5D2
:1003C000001747EB030140EAD570B6196D4111E003
:1003D0006D084FEA360645EAC0754FEA0752001B22
:1003E00061EB0201001C41F5801149084FEA300021
:1003F0000019514132462B4603B0BDE8F04F00F0E2
:100400004DB90098012240000023D0EB020263EBBB
:10041000E073009821464FEAE074B8EB000061EB0E
:100420000401E9E783F000435BE781F0004158E70E
:100430002DE9FE4F81EA030404F0004421F000415D
:1004400000944FF0000B23F0004350EA01045ED00B
:1004500052EA03045BD0C3F30A54C1F30A552C4497
:10046000A4F2F3340194A0FB0254C1F3130141F44C
:100470008011C3F3130343F4801301FB024400FB18
:10048000034E840A970A44EA815447EA8357A4FB3F
:10049000076802958D0A05FB07854FEA932C04FB3C
:1004A0000C542705029D4FEA065847EA1637B5EB6C
:1004B00008056EEB070C870E920E47EA811742EA99
:1004C0008312A7FB0201B6EB0B0164EB00042B0DBA
:1004D00043EA0C335E1844EB1C50DA465146E7FB06
:1004E0000201C5F313044FEA0B3343EA14534FEAF6
:1004F0000432019C43EA0603A4F10C040294009C1C
:10050000CDE900B400F0D9F803B0BDE8F08F0020C9
:100510000146F9E72DE9F04D81EA030404F0004BB0
:1005200021F0004514464FF0000A23F0004150EA44
:10053000050220D054EA01021DD0C5F30A57024635
:10054000C5F31303C1F31300C1F30A5640F4801539
:1005500043F48013A7EB0608101BD64608F2FD38BB
:1005600073EB050002D308F1010801E092185B412A
:10057000B8F1000F03DA00200146BDE8F08D00203D
:100580004FF48011064684460EE0171B73EB0507F7
:1005900005D3121B63EB050306434CEA010C490823
:1005A0004FEA300092185B4150EA0107EDD152EA60
:1005B000030012D082EA040083EA0501084305D053
:1005C000101BAB4106D20122002306E000224FF0AF
:1005D000004302E06FF0010253101AEB06004CEBEF
:1005E000085110EB0A0041EB0B01BDE8F04D00F0A3
:1005F00055B8C1F30A52C1F3130140F2FF3341F47D
:1006000080119A4202DA00200146704740F23343DB
:100610009A42A2F2334202DC5242FFF752BEFFF787
:1006200041BE000030B5041E71F1000404DB4FF040
:100630000044404264EB0101141E73F1000405DB29
:100640001C464FF00043524263EB0403994208BF3B
:10065000904230BD064C074D06E0E06840F00103D3
:1006600094E8070098471034AC42F6D3FFF796FDA4
:100670007430000894300008202A06DBCB17203A9B
:1006800041FA02F043EAE07306E041FA02F3D04097
:10069000C2F12002914008431946704710B5141E5C
:1006A00073F1000408DA401C41F1000192185B412B
:1006B0001A4301D120F0010010BD2DE9F04D924602
:1006C0009B4611B1B1FA81F202E0B0FA80F2203219
:1006D0009046FFF7E7FD04460F4640EA0A0041EA6C
:1006E0000B0153465A46084313D0114653EA010002
:1006F00019D0C8F140025046FFF7E3FD05460E460B
:10070000504659464246FFF7CDFD084305D001202B
:1007100004E020463946BDE8F08D0020054346EA56
:10072000E0762C4337430A986305E40AA0EB0800FF
:100730000022FD0A44EA47540A3002D5002001464F
:10074000E9E7010510196941DDE90845001969412A
:10075000BDE8F04DA2E7FEE77047000070B5044623
:1007600000F0D2F80546601C02D00448007804442A
:1007700000F0CAF8401BA042FAD370BD0000002070
:100780002DE9F84FDFF860B100224FF001084FF07B
:10079000030A4FF00F090BF1040E00BF0B6808FAB3
:1007A00002F42340A3426ED14D68022D01D0122DD8
:1007B0000ED1D50800EB850CDCF820505607F70E5B
:1007C00009FA07F6B5430E69BE402E43CCF8206007
:1007D000066855000F790AFA05FC07F0030726EAB8
:1007E0000C06AF40374307604E68012E05D0022E3D
:1007F00003D0112E01D0122E0ED18668CF6826EAC2
:100800000C06AF40374387604668A6430C79C4F3B3
:100810000014944034434460C6688C6826EA0C0691
:10082000AC403443C4604C68E40056D52F4C256876
:1008300045F480452560246822F0030504F48044D3
:1008400000942B4C2E19D6F8084895072F0F09FA5B
:1008500007F5AC43274DA84201D1002515E0264DF0
:10086000A84201D1012510E0244DA84201D1022562
:100870000BE0234DA84201D1032506E0214DA842FB
:1008800002D1042501E028E00725BD402543C6F834
:100890000858DBF800405D464E689C43F60300D5DF
:1008A0001C432C60DEF8004075464E689C43B6033E
:1008B00000D51C432C600C4D08352C684E689C43B9
:1008C000F60200D51C432C60074D0C352C684E6891
:1008D0009C43B60200D51C432C60521C102AFFF426
:1008E0005DAFBDE8F88F0000003C01404438024095
:1008F00000300140000002400004024000080240B5
:10090000000C02400010024001488068704700005F
:100910000000002070B5040004D094F83D000025CC
:1009200010B106E0012070BD84F83C50204600F074
:10093000B5FA242084F83D002068016821F0010107
:10094000016000F003FC33492268B0FBF1F1516013
:10095000314A6368934206D94FF4967359434FF472
:100960007A73B1FBF3F12368491C19626168914203
:100970000BD84900B0FBF1F2C2F30B02042A01D2FA
:10098000042019E0B0FBF1F016E0A3689BB301EB83
:10099000C10202EB0112B0FBF2F242F480421205F6
:1009A00030D04BB301EBC10202EB0111B0FBF1F00F
:1009B00040F4804040F400402168C861D4E9070158
:1009C000084321680860D4E903100843216888605F
:1009D000D4E9050108432168C8602068016841F036
:1009E000010101602564202084F83D00256384F81E
:1009F0003E50002070BD00E006E001EB4102B0FB7C
:100A0000F2F2CCE70120D7E701EB4101B0FBF1F0B6
:100A1000D0E7000040420F00A08601002DE9FF4F03
:100A200081B099468B4604464FF00108FFF76CFFF2
:100A3000054694F83D0020287BD1192301224D4919
:100A40002046009500F02FFF002872D194F83C005A
:100A500001286ED0012084F83C0020680168C90795
:100A600003D1016841F0010101602068016821F4AF
:100A700000610160242084F83D00002626643E4881
:100A8000E06220272068016841F4807101604B46D4
:100A900000224FF001112046009500F004FF0028CD
:100AA00058D121680BF0FE000861FFF72DFF216887
:100AB000054648694969C0F3400094F83D20C1F3F8
:100AC00080214FF0A00A12E0B9F1000F04D0FFF727
:100AD0001BFF411B494501D984F83DA021684869A5
:100AE0004969C0F3400094F83D20C1F380210843D8
:100AF00001D1A02AE8D184F83D7020684169C9433A
:100B0000890717D4016841F40071016020684169C8
:100B100080691923012217492046009500F0C3FE81
:100B2000C0B984F83D7084F83C60002005B0BDE891
:100B3000F08F1DE0016841F40071016021686FF4DD
:100B400080604861192301220A492046009500F07F
:100B5000AAFE08B10320E9E74146039808F101081D
:100B600081428FD384F83D7084F83C600120DDE73A
:100B70000220DBE7020010000000FFFF2DE9F84F24
:100B80001F4690468A460446DDF82890FFF7BCFED3
:100B9000054694F83D0020286FD1192301226E49A3
:100BA0002046009500F07FFE0028F5D194F83C0027
:100BB000012862D0012084F83C0020680168C90740
:100BC00003D1016841F0010101602068016821F44E
:100BD00000610160222084F83D00102084F83E006E
:100BE00000262664C4F8248067855C48E062608D36
:100BF00020852B464A465146204600F073FD28B119
:100C0000206C84F83C60042841D04DE0208D544F86
:100C100068B1012814D002282068016816D041F478
:100C200080610160206841698069009085E02068EA
:100C3000416981690091016841F4007101607CE0C3
:100C40002068016821F480610160F0E721F480618F
:100C500001602068016841F40061E2E7032849D897
:100C600001280BD0022817D04B46002239462046D7
:100C7000009500F018FEB8B92AE06AE02A46494615
:100C8000204600F085FE28B1206C20280CD00120E1
:100C9000BDE8F88F206845E04B46002239462046E3
:100CA000009500F000FE08B10320F1E7206801681C
:100CB00041F40071016020680169606A421C62624F
:100CC0000170208D401E2085608D401E6085E1E70B
:100CD0002068016821F48061016020680169606A10
:100CE000421C62620170208D401E2085608D401E76
:100CF0006085D1E72A464946204600F049FE002893
:100D0000C2D120680269606A411C61620270208D54
:100D1000401E2085608D401E608520684169C94362
:100D200049070AD40169606A421C62620170208D21
:100D3000401E2085608D401E6085208D00288DD14D
:100D4000202084F83D0084F83E6084F83C60002058
:100D50009EE702209CE70000020010000000FFFF59
:100D6000040001002DE9F84F1F4690468A460446CC
:100D7000DDF82890FFF7C8FD064694F83D002028CE
:100D80007ED11923012243492046009600F08BFDB5
:100D900000287DD194F83C00012879D0012084F806
:100DA0003C0020680168C90703D1016841F00101D6
:100DB00001602068016821F400610160212084F84D
:100DC0003D00102084F83E0000252564C4F82480EE
:100DD00067853148E062608D208533464A4651463A
:100DE000204600F0EFFC28B1206C84F83C50042829
:100DF0004CD00DE0206841698069009030E03246B7
:100E00004946204600F0F5FD28B1206C042838D072
:100E10000320BDE8F88F606A411C61622168007898
:100E20000861608D401E6085208D401E80B2208547
:100E300021684A69D24352070BD450B1606A421C00
:100E4000626200780861608D401E6085208D401EC2
:100E5000208532464946204600F0FEFC0028D4D1C9
:100E6000208D0028CBD154F83D0B016841F400716E
:100E70000160202004F81E09E57765770020C8E7A7
:100E800006E02068016841F4007101600120C0E7BC
:100E90000220BEE7020010000000FFFF10B586B080
:100EA000044614216846FFF7C9F9134920688842AF
:100EB00020D11248016841F00201016000686946D2
:100EC00000F002000590C020009012200190012047
:100ED000029003200390042004900948FFF750FC7F
:100EE00006481030016841F400110160006800F408
:100EF0000010059006B010BD00540040303802408C
:100F00000004024002488168027811448160704701
:100F1000000000200B4810B5016841F40071016029
:100F2000016841F480610160016841F480710160F1
:100F3000032000F061F8002000F006F800F024F82B
:100F4000002010BD003C024070B50D4D04464FF42A
:100F50007A712878B1FBF0F00A490968B1FBF0F02A
:100F600000F0D2FA48B9102C07D200222146501EB8
:100F700000F022F800206C6070BD012070BD000000
:100F8000000000200C0000200A4808B5016841F468
:100F900080410160006800F4804000900548001F17
:100FA000016841F080510160006800F080500090BD
:100FB00008BD000044380240F0B40E4B1B680C46DC
:100FC000C3F30223C3F10705042D00D90425191D1D
:100FD000072901D2002300E0DB1E012606FA05F1F5
:100FE000491E214099409E40761E16403143F0BC78
:100FF00001F004B80CED00E0064900F007020868B3
:101000004FF6FF03184040EA0220034A10430860ED
:10101000704700000CED00E00000FA052DE9F047F4
:101020000E46050065D0DFF81481D8F80000F7B24D
:1010300000F00F00B04207D288F80070D8F8000026
:1010400000F00F00B04254D128683D4C810712D502
:10105000400703D5206840F4E0502060287800075E
:1010600003D5206840F4604020602068A96820F023
:10107000F000084320602878C0072DD03049686808
:101080000839012812D0022813D0032811D009688A
:10109000890700292DDA216821F00301014321602D
:1010A000FFF732FC814641F2883A0EE00968890375
:1010B000EFE709688901ECE7FFF726FCA0EB0901DF
:1010C000514502D90320BDE8F0872068696800F027
:1010D0000C00B0EB810FEFD1D8F80010404601F0C2
:1010E0000F01B14207D90770006800F00F00B0424D
:1010F00001D00120E7E72878400705D52068E96896
:1011000020F4E050084320602878000706D52068C6
:10111000296920F4604040EAC100206000F036F800
:101120002168084AC1F30311515CC84006490860B0
:101130000020FFF709FF0020C5E70000003C024047
:10114000083802405C3000080C00002004480549C3
:1011500000680968044AC1F38221515CC8407047A5
:101160000C000020083802406C3000080448054993
:1011700000680968044AC1F34231515CC8407047B5
:101180000C000020083802406C300008154810B5EB
:10119000006810F00C02144813D04110042A0FD03C
:1011A000082A0ED10F4C241F2268236802F03F0248
:1011B0005B0207D52068C0F38810A0FB010106E0A0
:1011C000084610BD2168C1F38811A1FB000100236E
:1011D000FEF7FCFF2168C1F30141491C4900B0FB47
:1011E000F1F010BD083802400024F4002DE9F84F5A
:1011F000050076D02878DFF8F8B2BE4CC00749D099
:10120000DBF800105846C1F38101012908D00068BD
:10121000C0F3810002280AD1201D0068400206D5D3
:101220002068800336D568680028E2D032E068681C
:10123000B0F5803F10D0B0F5A02F206810D020F47A
:1012400080302060206820F4802020606868A0B191
:10125000FFF75AFB06460CE0206840F48030F4E7C4
:1012600040F480202060F7E7FFF74EFB801B6428E6
:1012700073D820688003F7D50CE0FFF745FB0646DE
:1012800005E000BFFFF740FB801B6428F0D8206812
:101290008003F7D42878DFF8608280074FF00009D8
:1012A0003ED5DBF80010584611F00C0F09D000684D
:1012B000C0F3810002280BD18D48001F0068400256
:1012C00006D42068800715D5E868012809D111E007
:1012D000E868B8B10120C8F80000FFF715FB064622
:1012E00005E002E1FFF710FB801B0228C0D8206850
:1012F0008007F7D52068296920F0F80040EAC1008E
:1013000020600DE0C8F80090FFF7FEFA064604E002
:10131000FFF7FAFA801B02281FD820688007F7D44D
:101320002878000722D5724E744869696C3671B10D
:1013300001210160FFF7E8FA074604E0FFF7E4FA4D
:10134000C01B022809D830688007F7D50EE0C0F826
:101350000090FFF7D9FA074605E083E0FFF7D4FADB
:10136000C01B02287ED830688007F7D42878400751
:1013700068D5DFF87CA100270AF1380ADAF8000006
:10138000C0000BD4DAF8001041F08051CAF8001008
:10139000DAF80000012700F080500090584E3068C5
:1013A000C00510D4306840F480703060FFF7ACFAAC
:1013B000009005E0FFF7A8FA0099401A022851D8DA
:1013C0003068C005F6D54A4EA868683601280FD0A7
:1013D0000528306810D020F001003060306820F01F
:1013E00004003060A868B8B1FFF78EFA00900FE0F3
:1013F000306840F00100F4E740F004003060F7E7A7
:10140000FFF782FA0099411A41F28830814264D88C
:1014100030688007F4D50EE0FFF776FA009007E019
:10142000FFF772FA0099411A41F28830814254D88C
:1014300030688007F4D42FB1DAF8001021F0805121
:10144000CAF80010A869C0B3DBF80010C1F381012D
:1014500002294AD00228484607D0C8F86000FFF7A2
:1014600053FA00E039E005463AE04746C8F8600024
:10147000FFF74AFA064604E0FFF746FA801B022807
:101480002BD820688001F7D4D5E907010843A96A61
:101490001C4A490802EB01416A6A41EA8211084389
:1014A00095F82C1040EA01611148001F01600120ED
:1014B0003866FFF729FA054605E014E0FFF724FA3D
:1014C000401B022809D820688001F7D50BE000BF37
:1014D000FFF71AFA401B022802D90320BDE8F88F53
:1014E00020688001F4D40020F8E70120F6E700002E
:1014F000083802400038024000004742800E474250
:10150000007000400000FFFF10B5401EB0F1807F6A
:1015100001D3012010BD4FF0E02460610F2160175E
:1015200000F06CFD0020A06107202061002010BDAC
:1015300070B5040004D094F83900002510B106E01D
:10154000012070BD84F83850204600F023F8242094
:1015500084F839002068C16821F40051C160204638
:1015600000F0CCFD2068016921F490410161206800
:10157000416921F02A0141612068C16841F40051AC
:10158000C160E563202084F8390084F83A00002027
:1015900070BD000010B586B0044614216846FEF701
:1015A0004DFE14492068884221D11348016841F05A
:1015B00010010160006800F0100005900E4814381A
:1015C000016841F0010101600068694600F0010016
:1015D00005904FF4C060009002200190012002901D
:1015E00003200390072004900448FFF7C9F806B0D1
:1015F00010BD0000001001404438024000000240CD
:101600002DE9F843044690F839001F4616460D466A
:10161000202850D1A5B19EB194F8380001284AD0B5
:10162000012084F838004FF00008C4F83C802120E5
:1016300084F83900FFF768F9A6848146E68426E03D
:101640000120BDE8F883E08C401EE084A0684B4692
:10165000B0F5805F4FF000024FF080012046009708
:1016600003D000F0A1FEE8B90DE000F09DFEC8B97E
:1016700028882168C0F308004860206908B16D1C03
:1016800005E0AD1C03E0216815F8010B4860E08C13
:101690000028D8D14B46002240212046009700F078
:1016A00083FE08B10320CCE7202084F8390084F8B9
:1016B00038800020C5E70220C3E7FEE701684A69D9
:1016C000D24352050CD46FF480624A610421016454
:1016D000002140F8301F202242730173012070471F
:1016E000002070472DE9F84F0446C06A1E46924616
:1016F0000D4621680A6842F480620A60042807D017
:10170000012805D010F5803F02D0206B112804D1AC
:101710002068016841F4807101604FF00118534660
:10172000002241462046009600F0BDF8B8BB206973
:1017300008F10109B0F5804F12D00620216800EAB7
:10174000D51747F0F00008613346524608F107010B
:10175000204600F0D9F838B1206C04282FD01EE0C4
:10176000E8B240F001001FE02168E8B208613346AA
:1017700052464946204600F0C7F80028ECD12068C0
:10178000416981690091016841F4807101605346AB
:10179000002241462046009600F085F810B1032053
:1017A000BDE8F88F47F0F1002168086133465246E2
:1017B0004946204600F0A8F80028CDD1F0E70120E6
:1017C000EEE70000F8B50446C06A1E460D4617460F
:1017D000042807D0012805D010F5803F02D0206BE7
:1017E000122804D12068016841F480710160134619
:1017F00000224FF001112046009600F054F8A0B9E5
:101800002069B0F5804F12D00620216800EAD5107B
:1018100040F0F000086133463A460E49204600F099
:1018200073F838B1206C042811D00320F8BD05F0FE
:10183000FE0000E0E8B221680861064933463A46F6
:10184000891F204600F060F80028EBD1F8BD012088
:10185000F8BD00000800010070B516460D460446AC
:101860001AE02046FFF72AFF08B1012070BD681C6E
:1018700012D025B1FFF748F8801BA8420CD954F8C4
:10188000400F40F0200044F8100900202060202183
:1018900061732073032070BD20684069C043400716
:1018A000DFD4002070BD2DE9F0471E4690460D465E
:1018B0000446C1F30747DDF8209012E0701C10D0F9
:1018C0002EB1FFF721F8A0EB0900B04209D90020A2
:1018D00044F8300F20216173A07320730320BDE80A
:1018E000F0872068012F0AD0806925EA00000004F3
:1018F000000C06D000214145E0D00020EFE7406910
:10190000F3E70121F7E700002DE9F0479A469146F9
:101910000D46044600264FF02008C1F307472AE091
:1019200020684069C043400512D42068016841F432
:101930000071016021686FF48060486104202064B8
:10194000266384F83D8084F83C600120BDE8F08780
:10195000B9F1FF3F0FD0B9F1000F05D0FEF7D4FF6A
:10196000A0EB0A01494506D944F8306F84F80D8090
:1019700026730320EAE72068012F07D0D0F818006B
:1019800025EA00000004000CE0D0C9E74069F7E751
:101990002DE9F041002590460E460446202721E01F
:1019A0004069C043C0060CD421686FF01000486144
:1019B0002564256384F83D7084F83C500120BDE81F
:1019C000F0812EB1FEF7A0FFA0EB0800B04209D9CC
:1019D00054F8400F40F0200044F804096770257067
:1019E0000320ECE720684169C9434906D8D40020A8
:1019F000E5E770B516460D4604461AE02046FFF7A7
:101A00005DFE08B1012070BD681C12D025B1FEF743
:101A10007BFF801BA8420CD954F8400F40F02000F7
:101A200044F81009002020602021617320730320F6
:101A300070BD20684069C0430006DFD4002070BD3F
:101A40002DE9F04F89B0824675208DF80C001D20DD
:101A50008DF81400002742F0D0008DF810700E466B
:101A6000087042F01801717088469B468146014615
:101A7000052302225046FEF7D1FF00287AD14FF409
:101A80007A74012303AA494650460094FFF76AF985
:101A900000286FD1012306AA494650460094FFF75B
:101AA0006DF800287DD16B258DF8045080208DF8CD
:101AB0000500022301AA494650460094FFF752F957
:101AC00000286ED16420FEF749FE37208DF804000F
:101AD00002208DF80500034601AA494650460094AD
:101AE000FFF740F900285CD1052302224146504609
:101AF000FEF794FFF0BB012304AA41465046009430
:101B0000FFF730F9B0BB012307AA414650460094C5
:101B1000FFF734F870BB03E0032009B0BDE8F08F95
:101B20009DF818007128F7D19DF81C004828F3D1C2
:101B30008DF804508DF80570022301AA49465046DD
:101B40000094FFF70FF9A8B90B208DF804000127C6
:101B50008DF80570022301AA414650460094FFF714
:101B600001F938B96420FEF7F9FD8DF804508DF8BD
:101B7000057000E015E0022301AA49465046009492
:101B8000FFF7F0F868B91A208DF8040003208DF8EB
:101B90000500022301AA494650460094FFF7E2F8E7
:101BA00008B10120B9E704223146504600F01CF983
:101BB0005A463146504600F0C7F8012305AA494667
:101BC00050460094FFF7CEF80028F6D1012302AA70
:101BD000494650460094FEF7D1FF0028F6D19DF803
:101BE000080000F0F000C01C8DF80800012302AAD4
:101BF000494650460094FFF7B5F80028F6D1314623
:101C00005046129A00F004F931465046139A00F0FB
:101C10004FF9002081E700002DE9F0418AB00C4621
:101C20003B218DF81410277894F8018006464FF474
:101C30007A75012305AA394630460095FFF792F8D8
:101C40000028F6D10E2301AA394630460095FEF74A
:101C500095FF0028F6D1BDF804009FED391A40BA6F
:101C6000A4F85800BDF8060040BAA4F85A00BDF820
:101C7000080040BAA4F85C00BDF80A0040BA00B2FF
:101C800000EE100AB8EEC00AC0EE010A9FED2D0A60
:101C900030EE800A84ED1B0ABDF80C0040BAA4F8AF
:101CA0005E00BDF80E0040BAA4F86000BDF8100058
:101CB00040BAA4F8620002208DF81400012305AA9E
:101CC000414630460095FFF74DF80028F6D1012334
:101CD00006AA414630460095FEF750FF0028F6D18F
:101CE0009DF8180010F001008DF81800E6D00320D0
:101CF0008DF81400012305AA414630460095FFF7F0
:101D000031F80028F6D1072307AA4146304600954E
:101D1000FEF734FF0028F6D19DF80A0000070DD425
:101D2000BDF8040024F8640FBDF806006080BDF81B
:101D30000800A08000200AB0BDE8F0810120FAE789
:101D40000000AA43B81E12422DE9FE43074691F84F
:101D500000801C2016460D468DF808004FF47A745A
:101D6000012302AA414638460094FEF7FBFF0028F3
:101D7000F6D1012301AA414638460094FEF7FEFE43
:101D80000028F6D19DF8040000F0E70040EAC60004
:101D90008DF80400012301AA414638460094FEF75D
:101DA000E1FF0028F6D136B1012E07D0022E0CD06B
:101DB000032E07D10CE09FED080A01E09FED070A12
:101DC00085ED080A0020BDE8FE839FED050AF7E7D0
:101DD0009FED040AF4E7000000008038000000399D
:101DE000000080390000003A7CB504460D781920C7
:101DF0008DF804008DF805204FF47A76022301AAAD
:101E0000294620460096FEF7ADFF0028F6D17CBD9E
:101E10002DE9FE43074691F800801B2016460D462B
:101E20008DF808004FF47A74012302AA414638461F
:101E30000094FEF797FF0028F6D1012301AA41463E
:101E400038460094FEF79AFE0028F6D19DF804006B
:101E500000F0E40040EAC6008DF80400012301AA66
:101E6000414638460094FEF77DFF0028F6D136B192
:101E7000012E07D0022E0CD0032E07D10CE09FEDCF
:101E8000080A01E09FED070A85ED010A0020BDE880
:101E9000FE839FED050AF7E79FED040AF4E70000D3
:101EA000FFFFF93BFFFF793CFFFFF93CFFFF793D66
:101EB0002DE9FF478146102091F801A00A268DF8F0
:101EC00004604FF0000817460D468DF80C008DF8A1
:101ED00005804FF47A74022301AA514648460094C3
:101EE000FEF740FF0028F6D10A20FEF737FC8DF8F8
:101EF00004600F208DF80500022301AA51464846D0
:101F00000094FEF72FFF0028F6D10A20FEF726FCEA
:101F1000012303AA514648460094FEF723FF0028F8
:101F2000F6D1032302AA514648460094FEF726FE46
:101F30000028F6D19DF80800DFED2C0A803800EE6D
:101F4000100AF8EEC01AB7EE000AB0EE401A01EE21
:101F5000A01A85ED131A9DF80900803801EE100AC9
:101F6000F8EEC11AB0EE401A01EEA01A85ED141A6F
:101F70009DF80A00803801EE100AB8EEC11A01EE91
:101F8000200A85ED150A8DF804608DF8058002237E
:101F900001AA514648460094FEF7E4FE0028F6D117
:101FA0000A20FEF7DBFB06208DF8046000EB07102B
:101FB0008DF80500022301AA514648460094FEF719
:101FC000D1FE0028F6D10A20FEF7C8FB17B1012F79
:101FD00007D102E09FED060A01E09FED060A85EDBC
:101FE0000F0A04B00020BDE8F08700000000803B2D
:101FF00000E0BF4000E0BF3FFEE770470907090E61
:10200000002806DA00F00F0000F1E02080F8141D2F
:10201000704700F1E02080F8001470477047704767
:10202000FEF770BF30B593B030216846FEF706F971
:1020300014210CA8FEF702F919480025016841F0A7
:1020400080510160006800F08050119015480168CF
:1020500021F4404141F4004101600068022400F491
:102060004040119001200090000401908001CDE9D2
:10207000064008AA0420542182E813000B90684609
:10208000FFF7B4F80CA90F2081E83100E002CDE998
:102090000F0502210CA8FEF7C1FF13B030BD0000F0
:1020A00040380240007000401048016841F470015F
:1020B00001600F48016841F0010101600C4A0021F4
:1020C0000832116002680B4B1A400260031D0A4A75
:1020D0001A60026822F48022026005480C30016018
:1020E00002495806803908607047000088ED00E01A
:1020F00000380240FFFFF6FE103000242DE9F041C9
:1021000004460068016921F44052E168114301610D
:102110002168C86849F20C6290432369A268E569A6
:102120001A4363692B431A430243CA602168486912
:1021300020F44072A06910434861E1696425B1F55B
:10214000004F9748974A21684FF032083FD091429C
:1021500001D081427CD1FFF709F800EBC00101EB0F
:10216000001061688900B0FBF1F6FEF7FFFF00EB9D
:10217000C00101EB001061688900B0FBF1F0B0FB19
:10218000F5F06FF01801484306EB800108EB0110F1
:10219000B0FBF5F000F0F006FEF7E8FF00EBC00141
:1021A00001EB001061688900B0FBF1F0B0FBF5F0C5
:1021B00006EB0016FEF7DAFF00EBC00101EB0010A2
:1021C00061688900B0FBF1F7FEF7D0FFD2E09142E1
:1021D00001D081423DD1FEF7C9FF00EBC00101EB08
:1021E000001061684900B0FBF1F0B0FBF5F00601AA
:1021F000FEF7BCFF00EBC00101EB00106168490075
:10220000B0FBF1F7FEF7B2FF00EBC00101EB0010ED
:1022100061684900B0FBF1F0B0FBF5F06FF0180118
:10222000484307EB800108EBC100B0FBF5F000F07C
:10223000F80006EB4006FEF799FF00EBC00101EB4A
:10224000001061684900B0FBF1F7FEF78FFF3CE03A
:1022500055E0FEF77BFF00EBC00101EB0010616869
:102260004900B0FBF1F0B0FBF5F00601FEF76EFFA0
:1022700000EBC00101EB001061684900B0FBF1F711
:10228000FEF764FF00EBC00101EB0010616849003C
:10229000B0FBF1F0B0FBF5F06FF01801484307EB2D
:1022A000800108EBC100B0FBF5F000F0F80006EB90
:1022B0004006FEF74BFF00EBC00101EB0010616828
:1022C0004900B0FBF1F7FEF741FF00EBC00101EB65
:1022D000001061684900B0FBF1F0B0FBF5F06FF061
:1022E0001801484307EB800108EBC100B0FBF5F093
:1022F00000F00700216830448860BDE8F081FEF7F7
:1023000025FF00EBC00101EB001061688900B0FB04
:10231000F1F6FEF71BFF00EBC00101EB0010616856
:102320008900B0FBF1F0B0FBF5F06FF01801484305
:1023300006EB800108EB0110B0FBF5F000F0F006B1
:10234000FEF704FF00EBC00101EB0010616889009B
:10235000B0FBF1F0B0FBF5F006EB0016FEF7F6FE71
:1023600000EBC00101EB001061688900B0FBF1F7E0
:10237000FEF7ECFE00EBC00101EB00106168890084
:10238000B0FBF1F0B0FBF5F06FF01801484307EB3C
:10239000800108EB0110B0FBF5F000F00F00A9E799
:1023A00000140140001001402DE9F0419846174605
:1023B0000E460446069D1DE0681C1BD02DB1FEF79D
:1023C000A3FAA0EB0800A84214D92068C16821F440
:1023D000D071C1602068416921F001014161202074
:1023E00084F8390084F83A00002084F8380003208B
:1023F000BDE8F0812068006836EA000004D00020C3
:10240000B842D9D00020F3E70120F9E7FEE7000049
:102410000FB4054B10B503A9044A029800F0DAF88E
:1024200010BC5DF814FB0000052D00081000002012
:1024300002E008C8121F08C1002AFAD1704770478D
:10244000002001E001C1121F002AFBD170470000EB
:102450002DE9FF5F82B00021DDE90430020DDDF8D7
:1024600040B0034318D044F61050A2F2FF3242436A
:102470001514119801281FD0A5EB0B00401C5FEA32
:10248000000A4FF000064E4FDFF83891B046504634
:1024900015D5CAF1000413E0119801244AA30128BC
:1024A00001D16FEA0B010298119AC0E90031C0E92D
:1024B000024206B0BDE8F09FCBF10000DFE7044622
:1024C0000021404A491842EB0450CDE9001012E0C7
:1024D000E00707D032463B4640464946FDF7A8FF95
:1024E0008046894632463B4610461946FDF7A0FF16
:1024F00006460F466410002CEAD1DDE90401DDE94F
:102500000023BAF1000F06DAFDF792FF42464B4670
:10251000FDF78EFF05E0FDF7FDFF42464B46FDF758
:10252000F9FF04460E460022284BFEF77BF803D83D
:102530004FF0FF30014607E00022254B2046314690
:10254000FDF7CFFEFEF755F8102409E0002C0ADB5A
:102550000A220023FDF73AFE039B30321A55641E0F
:1025600050EA0102F2D1641C039AC4F1110314442D
:10257000119A012A03D0012208430DD10AE0084331
:1025800004D000204FF0110B119072E7A3EB0B0564
:102590006D1E0DE05B4504DD4FF0000205F1010505
:1025A00004E003DA4FF00002A5F10105002AECD0A7
:1025B00002981199C0E90231C0E9004579E70000AD
:1025C000000014400000F03F300000000000F04325
:1025D0000000E03F2DE9FF4F95B09B468946064637
:1025E00000250FE2252877D100242746F84A01214B
:1025F000059400E0044316F8013F203B01FA03F084
:102600001042F7D130782A2811D06FF02F0330789C
:10261000A0F13002092A16D8059A44F0020402EB10
:10262000820203EB42021044761C0590EFE759F852
:10263000042B0592002A03DA504244F4005405901A
:1026400044F00204761C30782E2816D116F8010FBB
:1026500044F004042A280DD06FF02F023078A0F146
:102660003003092B09D807EB870302EB4303C71894
:10267000761CF3E759F8047B761C30786C280FD071
:1026800006DC4C2817D068280DD06A2814D104E045
:10269000742810D07A280FD10DE044F400140AE019
:1026A00044F4801401E044F440147278824202D170
:1026B00004F58014761C761C307866280BD013DC69
:1026C000582877D009DC002875D04528F6D0462850
:1026D000F4D047281AD19DE118E0632835D064284A
:1026E00079D0652812D195E1702873D008DC67286D
:1026F000F1D069286FD06E280DD06F2806D1B5E0D3
:1027000073282CD0752875D0782874D05A4617991C
:1027100090476D1C75E1C4F30250022809D00328CC
:102720000DD0D9F8001004280DD00D6009F104096E
:1027300067E1D9F80010EA17C1E90052F6E7D9F8C5
:1027400000100D80F2E70D70F0E719F8041B8DF80A
:10275000001000208DF80100EA46012003E059F83E
:1027600004AB4FF0FF3061074FF0000102D40DE0E1
:1027700008F101018846B9420FDA8045F8DB1AF802
:1027800008100029F4D108E008F1010188468142CF
:10279000FADB1AF808100029F6D105985B46A0EB81
:1027A000080721463846179A00F094FA284400EBAF
:1027B000080507E04DE029E10DE01AF8010B5A4643
:1027C00017999047B8F10108F7D25B462146384681
:1027D000179A13E142E00A220092C4F302524FF02A
:1027E000000A022A08D059F804CB032A4FEAEC71F8
:1027F0000AD00DE029E02AE009F1070121F00702E3
:10280000F2E802C1914609E00FFA8CFC4FEAEC7144
:10281000042A03D14FFA8CFC4FEAEC71002907DA45
:102820000A460021DCF1000C61EB02012D2202E0DE
:10283000220504D52B228DF80420012203E0E207B3
:1028400001D02022F7E7904659E00A2102E0102249
:102850000DE010214FF0000A00910BE010224FF024
:10286000000A44F004040827009203E008224FF015
:10287000000A0092C4F30252022A05D059F804CB90
:102880000021032A08D009E009F1070121F007021D
:10289000F2E802C1914605E01FFA8CFC042A01D13E
:1028A0000CF0FF0C4FF00008220728D5702806D046
:1028B000009B83F0100353EA0A0305D00EE0402288
:1028C0008DF80420012208E05CEA010206D03022E3
:1028D0008DF804208DF8050002229046009B83F0BD
:1028E000080353EA0A030AD15CEA010201D1620734
:1028F00005D530228DF804204FF001087F1E58289E
:1029000004D034A003900EA802900DE036A0F9E7A1
:1029100053466046009AFDF759FC84460398825C52
:102920000298401E029002705CEA0100F0D1029809
:1029300006A9081A00F1200A600702D524F48034A1
:1029400000E00127574502DDA7EB0A0000E0002068
:1029500000EB0A01009005984144401A0590E003FD
:1029600006D45B462146179A059800F0B3F9054452
:10297000002706E001A85A46C05D179990476D1CD4
:102980007F1C4745F6DBE0030CD55B462146179AD2
:10299000059800F09FF9054404E030205A46179945
:1029A00090476D1C0099481E00900029F5DC08E056
:1029B000029802995A460078491C0291179990474B
:1029C0006D1CBAF10001AAF1010AF1DC65E1000019
:1029D00009280100303132333435363738396162F5
:1029E00063646566000000003031323334353637B9
:1029F00038394142434445460000000000F058F990
:102A00000544761C307800287FF4ECAD19B02846D8
:102A1000BDE8F08F620700D4062709F1070222F013
:102A2000070CFCE80223E14603F000485FEA080CCB
:102A300002D00FF2702C0DE05FEA045C02D50FF2B9
:102A4000682C07E05FEAC47C02D00FF2602C01E042
:102A5000AFF2700C4FF0FF3823F00043CDF850C0B8
:102A600065280CD006DC452809D046281DD047280B
:102A70003DD13DE0662818D067287ED138E000219E
:102A8000112F01DB112000E0781CCDE9000106A91F
:102A90000EA8FFF7DDFCDDE90F010E9A039100217E
:102AA000009207F1010A04914DE04FF000400097B9
:102AB000CDE9011006A90EA8FFF7CAFCDDE90F0257
:102AC00003920E9B11990022DDF80CA00093049252
:102AD00011B9791C00EB010AB7EB0A0004D4C0F16C
:102AE000FF3007F1010A0490AAEB0700019044E0CF
:102AF000012F00DA01270021112F01DD112000E054
:102B00003846CDE9000106A90EA8FFF7A1FCDDE9D2
:102B10000F010E9A0391002104910092BA462107F9
:102B20000CD40399514500DA8A46BAF1010F05DD4C
:102B3000009AAAF10101515C302908D0B84202DAAA
:102B400010F1040F06DA0121CDE9011015E0AAF118
:102B50000101E9E7002805DC049901440491AAEB8E
:102B6000000102E0411C514500DD8A460499401AEB
:102B7000401C01904FF000400290200704D40198BF
:102B8000504501DBCDF8048000208DF84F000298FD
:102B90000DF14F07B0F1004F25D02B200E90029879
:102BA0004FF0020800280CDA404202902D200E90CF
:102BB00007E00A210298FDF75FFB3031029007F829
:102BC000011DB8F10001A8F10108F2DC029800280B
:102BD000EFD1791E0E980870307800F0200040F098
:102BE000450007F8020D12A8C01B00F10708149851
:102BF000007800B1012000EB0A01019801EBE071BF
:102C000005984144401A401E0590E00306D45B46F7
:102C10002146179A059800F05DF80544149800784D
:102C200018B15A46179990476D1CE00324D55B46AE
:102C30002146179A059800F04DF805441CE00498C9
:102C4000002807DBDDE90301884203DD0098405CD2
:102C5000179901E0179930205A469047049805F1DA
:102C60000105401C04900198401E019004D12E20C3
:102C70005A46179990476D1CBAF10001AAF1010A52
:102C8000DDDC05E017F8010B5A46179990476D1CDB
:102C9000B8F10001A8F10108F4DC5B462146179A5F
:102CA0000598ABE62D0000002B000000200000007E
:102CB0002DE9F041044600251E461746880404D439
:102CC00005E039462020B0476D1C641EF9D5284622
:102CD000BDE8F0812DE9F041044600251E469046EE
:102CE000C80301D5302700E02027880404D505E07B
:102CF00041463846B0476D1C641EF9D52846BDE8EC
:102D0000F081000013B54FF6FF73012269460248B7
:102D1000FEF776FC00981CBD680000202DED0A8BA4
:102D200084B0FEF7F7F8FFF77DF9944800240168B6
:102D300041F080010160016801F0800100910168AB
:102D400041F001010160016801F001010091016899
:102D500041F0020101600068894900F00200009022
:102D6000884801604FF4E131C0E901140C21C460CE
:102D7000C0E904418461C461FEF7DAFB81488249FD
:102D8000543801608149C0E901144FF48041C0E921
:102D9000034144618461C4610462FDF7BBFD01210C
:102DA0000320CDE900017749034640310022A1F11B
:102DB0009400FEF745FE00287ED075A0FFF728FBA3
:102DC000DFF8C09109F140099FED788A40F6C41AF6
:102DD00077A0FFF71DFB6B494031A1F19400FEF78E
:102DE0001BFF4846D9F86C8030F9581F00EE101AC6
:102DF000B0F9021010ED031AF8EEC00A10ED0E0A39
:102E000060EE80BA00EE901AB0F90410F8EEE00A15
:102E100020EE80CA00EE901AB0F90610F8EEE00A33
:102E200060EE80CA00EE101AB0F90810F8EEC00A81
:102E300010ED150A60EE808A00EE901AB0F90A10C3
:102E4000F8EEE00A20EE809A00EE901AB0F90C102D
:102E5000F8EEE00A20EE80AA00EE101AB0F90E108B
:102E6000F8EEC00A10ED070A60EE800A60EE819A63
:102E700000EE901A10ED021AB0F91010F8EEE00A08
:102E800060EE800A60EE81AA00EE901AF8EEE00A89
:102E900020EE800A50ED010A642020EE20BAFDF7F2
:102EA0005DFC2CEE880A10EE100AFDF7D2F90F46F1
:102EB00006462CEE080A00E05DE010EE100AFDF771
:102EC000C8F92BEE880A04460D4610EE100AFDF7ED
:102ED000C0F98DE8F00041EC100B3BA053EC102B37
:102EE000FFF796FA0A20FDF739FC1AEE100AFDF7F3
:102EF000B0F906460F4619EE100AFDF7AAF9044686
:102F00000D4618EE900AFDF7A4F98DE8F00041ECAB
:102F1000100B35A053EC102BFFF77AFA0A20FDF7BF
:102F20001DFC1BEE100AFDF794F906460F461AEE3B
:102F3000900AFDF78EF904460D4619EE900AFDF74A
:102F400088F98DE8F00041EC100B30A053EC102B09
:102F5000FFF75EFA0A20FDF701FC4046FDF779F91C
:102F600041EC100B31A053EC102BFFF751FA5046F7
:102F7000FDF7F4FB2CE733A020E7000030380240D7
:102F8000001001406800002000540040801A060034
:102F90000A0D206D707539323530206E6F742052F5
:102FA0006561647921200A0D0000000000007A4468
:102FB0000A0D2052656164204D505539323530205C
:102FC00064617461200A0D006178203D202566202F
:102FD0006179203D20256620617A203D20256620EC
:102FE000206D670A0D0000006778203D20256620CF
:102FF0006779203D20256620677A203D20256620C0
:10300000206465672F730A0D000000006D78203D75
:10301000202566206D79203D202566206D7A203D93
:1030200020256620206D470A0D00000074656D7034
:1030300065726174757265203D2025662020430A03
:103040000D0000000A0D206D7075393235302052A8
:103050006561647921200A0D000000000000000075
:103060000000000001020304060708090000000038
:103070000102030494300008000000201400000046
:1030800030240008A83000081400002004050000C7
:1030900040240008010000001000000000000000B3
:0830A0000024F4000000000010
:040000050800019559
:00000001FF
