:020000040800F2
:10000000D8050020A9010008BB250008791C0008BC
:10001000B925000857070008112B00080000000050
:10002000000000000000000000000000BF250008E4
:100030003D08000800000000BD250008C12500089B
:10004000C3010008C3010008C3010008C301000880
:10005000C3010008C3010008C3010008C301000870
:10006000C3010008C3010008C3010008C301000860
:10007000C3010008C3010008C3010008C301000850
:10008000C3010008C3010008C3010008000000000C
:10009000000000000000000000000000C301000894
:1000A000C3010008C3010008C3010008C301000820
:1000B000C3010008C3010008C3010008C301000810
:1000C000C3010008C3010008C3010008C301000800
:1000D000C3010008052B0008C30100080000000050
:1000E000C3010008C3010008C301000800000000AC
:1000F000000000000000000000000000C301000834
:1001000000000000C3010008C3010008C30100088B
:1001100000000000000000000000000000000000DF
:10012000C3010008C301000859070008C301000803
:10013000C3010008000000000000000000000000F3
:10014000000000000000000000000000C3010008E3
:10015000C3010008C301000865070008C3010008C7
:10016000C3010008C30100080000000000000000F7
:10017000000000000000000000000000000000007F
:1001800000000000C30100080000000000000000A3
:10019000C3010008DFF80CD000F05CFA004800470B
:1001A00049340008D8050020064880470648004723
:1001B000FEE7FEE7FEE7FEE7FEE7FEE7FEE7FEE717
:1001C000FEE7FEE749260008950100082DE9F05FEB
:1001D0000546002092469B468846064681464024B6
:1001E0001BE0284641464746224600F06AF853463F
:1001F0005A46C01A914110D311461846224600F0C3
:1002000051F82D1A67EB01084F46224601200021C4
:1002100000F048F817EB00094E41201EA4F101043C
:10022000DFDC484631462A464346BDE8F09FD2B25D
:1002300001E000F8012B491EFBD270470022F6E7CF
:1002400010B513460A4604461946FFF7F0FF20464C
:1002500010BD00F0004230F000400AD0C10D01F5A1
:100260006071C0F3160042EA0151C2084007114311
:10027000704700200146704730B50B46014600200C
:100280002022012409E021FA02F59D4205D303FA58
:1002900002F5491B04FA02F52844151EA2F10102D9
:1002A000F1DC30BD202A04DB203A00FA02F1002004
:1002B00070479140C2F1200320FA03F319439040A4
:1002C0007047202A04DB203A21FA02F0002170470F
:1002D00021FA02F3D040C2F12002914008431946AE
:1002E00070472DE9FE4F804681EA0300C00F0C469F
:1002F000009021F0004123F00045B8EB0200A94135
:1003000005D24046214690461C460B46024623F045
:100310000040104347D0270DC7F30A00C3F30A512A
:100320000290401A019040286BDAC3F3130040F4A6
:10033000801B0098924620B10023D2EB030A63EBA6
:100340000B0B01985946C0F140025046FFF7AAFF37
:1003500006460D4650465946019A00F08DF910EBBD
:1003600008006141002487EA115284EAE7731A43C6
:1003700040D0009A62B3019A012A4FEA075215DC75
:10038000001B61EB02014FF0004202EA0752CDE987
:100390000042001C41F5801132462B4600F08DF9D9
:1003A00003B0BDE8F08F40462146F9E7001B61EB42
:1003B0000201001C41F5801300185B412018A2F5D2
:1003C000001747EB030140EAD570B6196D4111E003
:1003D0006D084FEA360645EAC0754FEA0752001B22
:1003E00061EB0201001C41F5801149084FEA300021
:1003F0000019514132462B4603B0BDE8F04F00F0E2
:100400004DB90098012240000023D0EB020263EBBB
:10041000E073009821464FEAE074B8EB000061EB0E
:100420000401E9E783F000435BE781F0004158E70E
:100430002DE9FE4F81EA030404F0004421F000415D
:1004400000944FF0000B23F0004350EA01045ED00B
:1004500052EA03045BD0C3F30A54C1F30A552C4497
:10046000A4F2F3340194A0FB0254C1F3130141F44C
:100470008011C3F3130343F4801301FB024400FB18
:10048000034E840A970A44EA815447EA8357A4FB3F
:10049000076802958D0A05FB07854FEA932C04FB3C
:1004A0000C542705029D4FEA065847EA1637B5EB6C
:1004B00008056EEB070C870E920E47EA811742EA99
:1004C0008312A7FB0201B6EB0B0164EB00042B0DBA
:1004D00043EA0C335E1844EB1C50DA465146E7FB06
:1004E0000201C5F313044FEA0B3343EA14534FEAF6
:1004F0000432019C43EA0603A4F10C040294009C1C
:10050000CDE900B400F0D9F803B0BDE8F08F0020C9
:100510000146F9E72DE9F04D81EA030404F0004BB0
:1005200021F0004514464FF0000A23F0004150EA44
:10053000050220D054EA01021DD0C5F30A57024635
:10054000C5F31303C1F31300C1F30A5640F4801539
:1005500043F48013A7EB0608101BD64608F2FD38BB
:1005600073EB050002D308F1010801E092185B412A
:10057000B8F1000F03DA00200146BDE8F08D00203D
:100580004FF48011064684460EE0171B73EB0507F7
:1005900005D3121B63EB050306434CEA010C490823
:1005A0004FEA300092185B4150EA0107EDD152EA60
:1005B000030012D082EA040083EA0501084305D053
:1005C000101BAB4106D20122002306E000224FF0AF
:1005D000004302E06FF0010253101AEB06004CEBEF
:1005E000085110EB0A0041EB0B01BDE8F04D00F0A3
:1005F00055B8C1F30A52C1F3130140F2FF3341F47D
:1006000080119A4202DA00200146704740F23343DB
:100610009A42A2F2334202DC5242FFF752BEFFF787
:1006200041BE000030B5041E71F1000404DB4FF040
:100630000044404264EB0101141E73F1000405DB29
:100640001C464FF00043524263EB0403994208BF3B
:10065000904230BD064C074D06E0E06840F00103D3
:1006600094E8070098471034AC42F6D3FFF796FDA4
:10067000DC370008FC370008202A06DBCB17203ABD
:1006800041FA02F043EAE07306E041FA02F3D04097
:10069000C2F12002914008431946704710B5141E5C
:1006A00073F1000408DA401C41F1000192185B412B
:1006B0001A4301D120F0010010BD2DE9F04D924602
:1006C0009B4611B1B1FA81F202E0B0FA80F2203219
:1006D0009046FFF7E7FD04460F4640EA0A0041EA6C
:1006E0000B0153465A46084313D0114653EA010002
:1006F00019D0C8F140025046FFF7E3FD05460E460B
:10070000504659464246FFF7CDFD084305D001202B
:1007100004E020463946BDE8F08D0020054346EA56
:10072000E0762C4337430A986305E40AA0EB0800FF
:100730000022FD0A44EA47540A3002D5002001464F
:10074000E9E7010510196941DDE90845001969412A
:10075000BDE8F04DA2E7FEE7014800F083B80000D5
:1007600014010020014800F07DB800007401002051
:1007700001681823CAB2103AB2FBF3F2054B6FF3CB
:100780000901032A9B5CC36500D9091D81650846E0
:1007900070470000BC37000810B5014600208B6987
:1007A0008A6A4FF0C07453B1B3F5005F15D072B1CF
:1007B000012A0CD0022A0AD0032A09D104E01AB176
:1007C000012A06D0022A03D1C96AC90100D5012035
:1007D00010BDC96AA142FAD010BD002AF7D0012A83
:1007E000F2D0022AF3D0032AF3D010BD30B504684A
:1007F000256825F480252560046863608368402BA4
:10080000036803D099600068C26030BD9A600068D8
:10081000C16030BD0FB44FF4807100B5C1B043ABBF
:100820006846429A02F076F982B26946024801F0BF
:10083000E1F941B05DF814FB640000207047704797
:1008400090F83510022903D08021416501207047BE
:10085000052180F835100068016821F00101016070
:10086000002070472DE9F84304464FF00009CDF809
:10087000009063484FF41651A56D0068B0FBF1F786
:100880002E6894F85C10082000FA01F131420FD074
:1008900021680A6852070BD50A6822F004020A6030
:1008A00094F85C108840A860606D40F001006065BD
:1008B00094F85C104FF0010808FA01F0304208D0BB
:1008C00021684969090604D5A860606D40F00200FE
:1008D000606594F85C1004208840304208D021689C
:1008E0000968890704D5A860606D40F00400606560
:1008F00094F85C1010208840304218D021680968B4
:10090000090714D5A86020680168490304D5006868
:10091000000308D5A16C07E00168C90503D401688C
:1009200021F008010160216C09B12046884794F844
:100930005C1020208840304231D021680968C90607
:100940002DD5A86094F8350005282068016806D0E8
:10095000490347D5006800031DD4616C1CE021F0F9
:10096000160101602068416921F080014161206C1D
:1009700008B9A06C20B12068016821F0080101606D
:1009800094F85C103F208840A86084F8349084F884
:100990003580216D1FE0E16B09B120468847606D0D
:1009A00000282BD0606DC00714D0052084F83500D6
:1009B0002068016821F0010101600098401C00904E
:1009C000B84203D820680068C007F6D184F8349094
:1009D00084F83580E16C002910D001B02046BDE8D4
:1009E000F04308470168C905D5D4016821F010011A
:1009F000016084F8349084F83580CCE7BDE8F88352
:100A00000C0000202DE9F041044600F077F906467D
:100A10005CB1002584F83450022084F83500206849
:100A2000016821F0010101600DE00120BDE8F081C5
:100A300000F064F9801B052805D92020606503209B
:100A400084F83500F2E720680068C007F0D122681A
:100A5000116820480140D4E901031843D4E9033662
:100A60003343184363691843A3691843E369184380
:100A7000236A18430843616A042903D1D4E90B139C
:100A800019430843106020684069666A20F0070136
:100A900030460E43012704280CD1A06A0643E06AC1
:100AA00040B12046FFF778FE20B14020606584F811
:100AB0003570BAE7206846612046FFF759FE94F882
:100AC0005C203F2191408160656584F8357000208D
:100AD000ACE700003F8010F02DE9F0410446866D40
:100AE00090F83400002501280DD0012084F834004E
:100AF00094F835700020012F07D084F834000225C7
:100B00002846BDE8F0810220FBE7022784F8357013
:100B100060652046FFF76AFE94F85C103F2088402D
:100B2000B0602068016841F01601016020684169E9
:100B300041F080014161206C20B12068016841F0E2
:100B4000080101602068016841F001010160D7E7F8
:100B500070B5044600F0D2F80546601C02D0044887
:100B60000078044400F0CAF8401BA042FAD370BDDC
:100B7000000000202DE9F84FDFF860B100224FF0AF
:100B800001084FF0030A4FF00F090BF1040E00BFEC
:100B90000B6808FA02F42340A3426ED14D68022D7F
:100BA00001D0122D0ED1D50800EB850CDCF82050B9
:100BB0005607F70E09FA07F6B5430E69BE402E43F5
:100BC000CCF82060066855000F790AFA05FC07F09A
:100BD000030726EA0C06AF40374307604E68012E34
:100BE00005D0022E03D0112E01D0122E0ED1866810
:100BF000CF6826EA0C06AF40374387604668A643B5
:100C00000C79C4F30014944034434460C6688C6883
:100C100026EA0C06AC403443C4604C68E40056D568
:100C20002F4C256845F480452560246822F0030593
:100C300004F4804400942B4C2E19D6F808489507EC
:100C40002F0F09FA07F5AC43274DA84201D1002523
:100C500015E0264DA84201D1012510E0244DA842FF
:100C600001D102250BE0234DA84201D1032506E066
:100C7000214DA84202D1042501E028E00725BD400E
:100C80002543C6F80858DBF800405D464E689C4393
:100C9000F60300D51C432C60DEF8004075464E6814
:100CA0009C43B60300D51C432C600C4D08352C68C2
:100CB0004E689C43F60200D51C432C60074D0C3552
:100CC0002C684E689C43B60200D51C432C60521C15
:100CD000102AFFF45DAFBDE8F88F0000003C014032
:100CE000443802400030014000000240000402404D
:100CF00000080240000C02400010024001488068D9
:100D0000704700000000002070B504001BD094F86C
:100D10003D00002520B984F83C50204600F0E0FA60
:100D2000242084F83D002068016821F00101016061
:100D300000F03CFC4D4A6168914201D84C4900E00A
:100D40004C49884201D2012070BD4B492368B0FB59
:100D5000F1F15E6826F03F060E435E6063689342E1
:100D600006D94FF4967359434FF47A73B1FBF3F1FC
:100D70002368491C1E6A26F03F06314319626168E8
:100D8000914210D84900401EB0FBF1F2521CC2F350
:100D90000B02042A01D2042022E0B0FBF1F0401C37
:100DA000C0F30B001CE0A368F3B301EBC10202EB3C
:100DB0000116421EB2FBF6F2521C42F480421205AA
:100DC00049D093B301EBC10202EB0111401EB0FB0D
:100DD000F1F0401CC0F30B0040F4804040F40040B0
:100DE0002168CA694CF6FF739A431043C861D4E97D
:100DF0000701084321680A6822F0C0021043086016
:100E0000D4E9030101432068826848F2FF339A4322
:100E100011438160D4E9050108432168CA6822F0C2
:100E2000FF021043C86001E00EE016E02068016890
:100E300041F0010101602564202084F83D00256314
:100E400084F83E50002070BD01EB4106421EB2FB0B
:100E5000F6F2521CB3E70120C2E701EB4101401E4C
:100E6000B0FBF1F0401CC0F30B00B7E7A086010017
:100E700080841E0000093D0040420F002DE9FF4F15
:100E800081B089460446FFF739FF054694F83D00D6
:100E90004FF0010820287AD1192301224B4920461E
:100EA000009500F0D5FF002871D194F83C0001288E
:100EB0006DD0012084F83C0020680168C90703D187
:100EC000016841F0010101602068016821F40061BE
:100ED0000160242084F83D00002626643C48E0623E
:100EE0004FF0011B20272068016841F480710160E8
:100EF0000095002259462046049B00F0A9FF0028D7
:100F000056D1216809F0FE000861FFF7F7FE21685D
:100F1000054648694969C0F34000C1F380214FF09C
:100F2000A00A0FE0FFF7EAFE411B0498814200D8B7
:100F300008B984F83DA0216848694969C0F34000B8
:100F4000C1F3802194F83D20A02A02D008B90029DD
:100F5000E8D084F83D7020684169C943890717D4F7
:100F6000016841F4007101602068416980691923BA
:100F7000012216492046009500F06AFFC0B984F8A6
:100F80003D7084F83C60002005B0BDE8F08F1BE0A8
:100F9000016841F40071016021686FF4806048616C
:100FA0001923012209492046009500F051FF08B19C
:100FB0000120E9E7039808F10108804593D384F8FC
:100FC0003D7084F83C60F3E70220DDE7020010008A
:100FD0000000FFFF2DE9F84F1F4690468A46044661
:100FE000DDF82890FFF78AFE054694F83D0020289A
:100FF00075D1192301226C492046009500F028FF85
:101000000028F5D194F83C00012868D0012084F82C
:101010003C0020680168C90703D1016841F0010163
:1010200001602068016821F400610160222084F8D9
:101030003D00102084F83E0000262664C4F8248079
:101040006785608D20855948E0622B464A465146A7
:10105000204600F029FE002878D1208D544F68B139
:10106000012814D002282068016816D041F480615C
:101070000160206841698069009087E020684169CB
:1010800081690091016841F4007101607EE020688F
:10109000016821F480610160F0E721F48061016062
:1010A0002068016841F40061E2E7032848D801287C
:1010B0000AD0022814D04B4600223946204600951B
:1010C00000F0C6FED8BB27E02A464946204600F07D
:1010D0003EFFA0BB20680069616A08704DE061E0D6
:1010E0004B46002239462046009500F0B1FE30BB49
:1010F0002068016841F40071016020680069616A3C
:101100000870606A401C6062218D491E2185618DD6
:10111000491E618521682EE02068016821F4806104
:10112000016020680069616A0870606A401C606242
:10113000208D401E2085608D401E6085D0E705E033
:101140002A464946204600F002FF10B10120BDE8C2
:10115000F88F20680069616A0870606A401C6062EC
:10116000218D491E2185618D491E618521684A694D
:10117000D24352070AD409690170606A401C606258
:10118000208D401E2085608D401E6085208D0028AA
:101190008BD1202084F83D0084F83E6084F83C60C8
:1011A0000020D4E70220D2E7020010000000FFFF79
:1011B000040001002DE9F84F1F4690468A46044678
:1011C000DDF82890FFF79AFD054694F83D002028A9
:1011D0007FD11923012240492046009500F038FEB6
:1011E000002876D194F83C00012872D0012084F8C0
:1011F0003C0020680168C90703D1016841F0010182
:1012000001602068016821F400610160212084F8F8
:101210003D00102084F83E0000262664C4F8248097
:101220006785608D20852D48E0622B464A465146F1
:10123000204600F0A3FD90B92068416980690090C4
:1012400036E02A464946204600F0B4FE50B1206CF4
:10125000042804D12068016841F400710160012074
:10126000BDE8F88F606A216800780861606A401CF8
:101270006062618D491E6185218D491E89B221857B
:1012800022685369DB435B070BD451B100781061CE
:10129000606A401C6062608D401E6085208D401E2B
:1012A00020852A464946204600F0ACFD0028CED1D4
:1012B000208D0028C5D154F83D0B016841F4007120
:1012C0000160202004F81E09E67766770020C7E752
:1012D000FFE70220C4E70000020010000000FFFF4B
:1012E00010B586B0044614216846FEF7A7FF1349DF
:1012F0002068884220D11248016841F00201016053
:101300000068694600F002000590C020009012209D
:1013100001900120029003200390042004900948CA
:10132000FFF728FC06481030016841F40011016005
:10133000006800F40010059006B010BD0054004095
:1013400030380240000402400248816802781144AB
:1013500081607047000000200B4810B5016841F41F
:1013600000710160016841F480610160016841F42D
:1013700080710160032000F06FF8002000F006F893
:1013800000F024F8002010BD003C024070B50D4D67
:1013900004464FF47A712878B1FBF0F00A490968E5
:1013A000B1FBF0F000F0E0FA48B9102C07D20022AF
:1013B0002146501E00F030F800206C6070BD012006
:1013C00070BD0000000000200C0000200A4808B595
:1013D000016841F480410160006800F480400090A1
:1013E0000548001F016841F080510160006800F06D
:1013F0008050009008BD000044380240002809DBFE
:1014000000F01F02012191404009800000F1E0201E
:10141000C0F8001170470000F0B40E4B1B680C467A
:10142000C3F30223C3F10705042D00D90425191DB8
:10143000072901D2002300E0DB1E012606FA05F190
:10144000491E214099409E40761E16403143F0BC13
:1014500001F076BB0CED00E0064900F007020868D9
:101460004FF6FF03184040EA0220034A1043086089
:10147000704700000CED00E00000FA052DE9F04790
:101480000E46050065D0DFF81481D8F80000F7B2E9
:1014900000F00F00B04207D288F80070D8F80000C2
:1014A00000F00F00B04254D128683D4C810712D59E
:1014B000400703D5206840F4E050206028780007FA
:1014C00003D5206840F4604020602068A96820F0BF
:1014D000F000084320602878C0072DD030496868A4
:1014E0000839012812D0022813D0032811D0096826
:1014F000890700292DDA216821F0030101432160C9
:10150000FFF7FCFB814641F2883A0EE00968890347
:10151000EFE709688901ECE7FFF7F0FBA0EB0901B1
:10152000514502D90320BDE8F0872068696800F0C2
:101530000C00B0EB810FEFD1D8F80010404601F05D
:101540000F01B14207D90770006800F00F00B042E8
:1015500001D00120E7E72878400705D52068E96831
:1015600020F4E050084320602878000706D5206862
:10157000296920F4604040EAC100206000F036F89C
:101580002168084AC1F30311515CC840064908604C
:101590000020FFF7FBFE0020C5E70000003C0240F2
:1015A00008380240C43700080C00002004480549F0
:1015B00000680968044AC1F38221515CC840704741
:1015C0000C00002008380240D437000804480549C0
:1015D00000680968044AC1F34231515CC840704751
:1015E0000C00002008380240D4370008154810B518
:1015F000006810F00C02144813D04110042A0FD0D8
:10160000082A0ED10F4C241F2268236802F03F02E3
:101610005B0207D52068C0F38810A0FB010106E03B
:10162000084610BD2168C1F38811A1FB0001002309
:10163000FEF7CCFD2168C1F30141491C4900B0FB14
:10164000F1F010BD083802400024F4002DE9F84FF5
:10165000050076D02878DFF8F8B2BE4CC00749D034
:10166000DBF800105846C1F38101012908D0006859
:10167000C0F3810002280AD1201D0068400206D56F
:101680002068800336D568680028E2D032E06868B8
:10169000B0F5803F10D0B0F5A02F206810D020F416
:1016A00080302060206820F4802020606868A0B12D
:1016B000FFF724FB06460CE0206840F48030F4E796
:1016C00040F480202060F7E7FFF718FB801B6428B8
:1016D00073D820688003F7D50CE0FFF70FFB0646B0
:1016E00005E000BFFFF70AFB801B6428F0D82068E4
:1016F0008003F7D42878DFF8608280074FF0000974
:101700003ED5DBF80010584611F00C0F09D00068E8
:10171000C0F3810002280BD18D48001F00684002F1
:1017200006D42068800715D5E868012809D111E0A2
:10173000E868B8B10120C8F80000FFF7DFFA0646F4
:1017400005E002E1FFF7DAFA801B0228C0D8206822
:101750008007F7D52068296920F0F80040EAC10029
:1017600020600DE0C8F80090FFF7C8FA064604E0D4
:10177000FFF7C4FA801B02281FD820688007F7D41F
:101780002878000722D5724E744869696C3671B1A9
:1017900001210160FFF7B2FA074604E0FFF7AEFA55
:1017A000C01B022809D830688007F7D50EE0C0F8C2
:1017B0000090FFF7A3FA074605E083E0FFF79EFAE3
:1017C000C01B02287ED830688007F7D428784007ED
:1017D00068D5DFF87CA100270AF1380ADAF80000A2
:1017E000C0000BD4DAF8001041F08051CAF80010A4
:1017F000DAF80000012700F080500090584E306861
:10180000C00510D4306840F480703060FFF776FA7D
:10181000009005E0FFF772FA0099401A022851D8AB
:101820003068C005F6D54A4EA868683601280FD042
:101830000528306810D020F001003060306820F0BA
:1018400004003060A868B8B1FFF758FA00900FE0C4
:10185000306840F00100F4E740F004003060F7E742
:10186000FFF74CFA0099411A41F28830814264D85E
:1018700030688007F4D50EE0FFF740FA009007E0EB
:10188000FFF73CFA0099411A41F28830814254D85E
:1018900030688007F4D42FB1DAF8001021F08051BD
:1018A000CAF80010A869C0B3DBF80010C1F38101C9
:1018B00002294AD00228484607D0C8F86000FFF73E
:1018C0001DFA00E039E005463AE04746C8F86000F6
:1018D000FFF714FA064604E0FFF710FA801B02280F
:1018E0002BD820688001F7D4D5E907010843A96AFD
:1018F0001C4A490802EB01416A6A41EA8211084325
:1019000095F82C1040EA01611148001F0160012088
:101910003866FFF7F3F9054605E014E0FFF7EEF946
:10192000401B022809D820688001F7D50BE000BFD2
:10193000FFF7E4F9401B022802D90320BDE8F88F25
:1019400020688001F4D40020F8E70120F6E70000C9
:10195000083802400038024000004742800E4742EB
:10196000007000400000FFFF10B5401EB0F1807F06
:1019700001D3012010BD4FF0E02460610F216017FA
:1019800001F0DEF80020A06107202061002010BDDA
:101990007047000070B5026804461068D16853694A
:1019A00010F00F0F50D003F0010501F4907635438D
:1019B0005DD0C20705D0CA0503D5E26B42F0010233
:1019C000E263420705D5DA0703D0E26B42F0020278
:1019D000E263820705D5DA0703D0E26B42F0040226
:1019E000E263020705D5DA0703D0E26B42F0080292
:1019F000E263E26B002A33D0800604D5880602D564
:101A0000204600F0ABFE20684069E16BC0F3801017
:101A1000090700D428B3204600F089FE20684169F8
:101A200049061AD5416921F040014161606BA0B1BE
:101A30001B490165606BFEF703FF002810D0606B47
:101A4000016DBDE870400847830610D58B060ED5A2
:101A50002046BDE8704000F081BE2046FFF798FFA9
:101A600070BD2046FFF794FF0020E06370BD0306C1
:101A700006D50B0604D52046BDE8704001F010B82D
:101A80004006F3D54806F1D5D168204621F0400143
:101A9000D160202184F8391000F0ECF870BD00000E
:101AA0009D26000870B5040004D094F83900002584
:101AB00010B106E0012070BD84F83850204600F0D7
:101AC00023F8242084F839002068C16821F40051EB
:101AD000C160204600F08EFE2068016921F490412B
:101AE00001612068416921F02A0141612068C168D3
:101AF00041F40051C160E563202084F8390084F886
:101B00003A00002070BD00002DE9F04186B0064685
:101B100014216846FEF792FB2F493068884258D15D
:101B20002E480024016841F010010160006800F0B7
:101B30001000059029481438016841F00101016046
:101B40000068694600F0010005904FF4C060009005
:101B500002200190012002900320039007200490AE
:101B60001F48FFF707F8204D1E484FF00067286018
:101B7000C5E901744FF48068C5E903486C61AC6144
:101B8000EC612C6228466C62FEF73CFF08B1FEF760
:101B900056FE7563AE631348144D7830E5E80207CE
:101BA0004020A5E81101114845F81449AC61EC61E9
:101BB0002C626C62FEF726FF08B1FEF740FE35632B
:101BC000002211462520AE63FFF726FC2520FFF7F3
:101BD00015FC06B0BDE8F081001001404438024019
:101BE0000000024040640240140100207401002003
:101BF0007047000070B5044690F83900202830D1B5
:101C000069B362B394F8380001282AD0012084F81F
:101C100038002162A284E2840025E563212084F853
:101C20003900236B1048D863236B10481864236B6A
:101C30000F48D864206B134605652668206B321D5B
:101C4000FEF74AFF21686FF04000086084F83850C2
:101C50002068416941F080014161002070BD012090
:101C600070BD022070BD0000F7260008252700087F
:101C7000AD26000870477047FEE701684A69D24305
:101C800052050FD46FF480624A61002140F8301F82
:101C9000202242738173026942F0040202610173DF
:101CA00001207047002070472DE9F84F0446C06AB4
:101CB0001E4692460D4621680A6842F480620A6018
:101CC000082807D0012805D010F5803F02D0206BEE
:101CD000112804D12068016841F4807101604FF03F
:101CE00001185346002241462046009600F0B0F805
:101CF000F0BB206908F10109B0F5804F0FD0062034
:101D0000216800EAD51747F0F000086133465246D3
:101D100008F10701204600F0CFF848BB03E0E8B225
:101D200040F001001BE02168E8B2086133465246EA
:101D30004946204600F0C0F8D0B920684169816961
:101D40000091016841F480710160534600224146D0
:101D50002046009600F07CF850B947F0F100216869
:101D60000861334652464946204600F0A5F800E097
:101D700001E0002800D00120BDE8F88FF8B5044646
:101D8000C06A1E460D461746082807D0012805D010
:101D900010F5803F02D0206B122804D12068016822
:101DA00041F480710160134600224FF0011120467A
:101DB000009600F04DF808BB2069B0F5804F0ED0BA
:101DC0000620216800EAD51040F0F0000861334693
:101DD0003A460B49204600F06FF878B902E005F06A
:101DE000FE0000E0E8B221680861054933463A4642
:101DF000891F204600F060F8002800D00120F8BDBF
:101E00000800010070B516460D4604460DE0204658
:101E1000FFF733FF08B1012070BD681C05D0FEF745
:101E20006DFF801BA84207D835B120684069C043C8
:101E30004007ECD4002070BD002044F8300F202172
:101E40006173A073216941F0200121612073E2E7F1
:101E50002DE9F0471E4690460D460446C1F307475C
:101E6000DDF8209008E0701C06D0FEF747FFA0EBDD
:101E70000900B0420FD876B12068012F18D08069D0
:101E800025EA00000004000C14D000214145EAD0EE
:101E90000020BDE8F087002044F8300F2021617356
:101EA000A073216941F02001216120730120F0E736
:101EB0004069E5E70121E9E72DE9F0479A469146B7
:101EC0000E46044600254FF02008C1F3074725E0E1
:101ED00020684069C043400514D42068016841F47B
:101EE0000071016021686FF480604861256384F8A7
:101EF0003D8084F83E50206C40F00400206484F85B
:101F00003C501FE0B9F1FF3F08D0FEF7F7FEA0EB11
:101F10000A0149450CD8B9F1000F09D02068012FFA
:101F200013D0806926EA00000004000C0BD0CFE734
:101F300044F8305F84F80D80A573206940F02000DC
:101F4000206125730120BDE8F0874069EAE72DE9AB
:101F5000F041002590460E460446202717E04069D0
:101F6000C043C0060CD454F8301B6FF01000486119
:101F700044F810596777A577206A2062257717E023
:101F8000FEF7BCFEA0EB0800B04208D83EB12068C6
:101F90004169C9434906E2D40020BDE8F08144F814
:101FA000305F6773A573206940F0200020612573BE
:101FB0000120F2E770B516460D4604460DE02046B6
:101FC000FFF75BFE08B1012070BD681C05D0FEF76D
:101FD00095FE801BA84207D835B120684069C043F0
:101FE0000006ECD4002070BD002044F8300F202102
:101FF0006173A073216941F0200121612073E2E740
:102000002DE9F04F89B0824675208DF80C001D2017
:102010008DF81400002742F0D0008DF810700E46A5
:10202000087042F01801717088469B46814601464F
:10203000052302225046FEF721FF00287AD14FF4F3
:102040007A74012303AA494650460094FFF7B2F878
:1020500000286FD1012306AA494650460094FEF796
:10206000B9FF00287DD16B258DF8045080208DF8B4
:102070000500022301AA494650460094FFF79AF84A
:1020800000286ED16420FEF763FD37208DF8040030
:1020900002208DF80500034601AA494650460094E7
:1020A000FFF788F800285CD10523022241465046FC
:1020B000FEF7E4FEF0BB012304AA4146504600941B
:1020C000FFF778F8B0BB012307AA414650460094B9
:1020D000FEF780FF70BB03E0032009B0BDE8F08F7E
:1020E0009DF818007128F7D19DF81C004828F3D1FD
:1020F0008DF804508DF80570022301AA4946504618
:102100000094FFF757F8A8B90B208DF804000127B9
:102110008DF80570022301AA414650460094FFF74E
:1021200049F838B96420FEF713FD8DF804508DF896
:10213000057000E015E0022301AA494650460094CC
:10214000FFF738F868B91A208DF8040003208DF8DD
:102150000500022301AA494650460094FFF72AF8D9
:1021600008B10120B9E704223146504600F01CF9BD
:102170005A463146504600F0C7F8012305AA4946A1
:1021800050460094FFF716F80028F6D1012302AA62
:10219000494650460094FEF71DFF0028F6D19DF8F1
:1021A000080000F0F000C01C8DF80800012302AA0E
:1021B000494650460094FEF7FDFF0028F6D131460F
:1021C0005046129A00F004F931465046139A00F036
:1021D0004FF9002081E700002DE9F0418AB00C465C
:1021E0003B218DF81410277894F8018006464FF4AF
:1021F0007A75012305AA394630460095FEF7DAFFC5
:102200000028F6D10E2301AA394630460095FEF784
:10221000E1FE0028F6D1BDF804009FED391A40BA5E
:10222000A4F85800BDF8060040BAA4F85A00BDF85A
:10223000080040BAA4F85C00BDF80A0040BA00B239
:1022400000EE100AB8EEC00AC0EE010A9FED2D0A9A
:1022500030EE800A84ED1B0ABDF80C0040BAA4F8E9
:102260005E00BDF80E0040BAA4F86000BDF8100092
:1022700040BAA4F8620002208DF81400012305AAD8
:10228000414630460095FEF795FF0028F6D1012320
:1022900006AA414630460095FEF79CFE0028F6D17E
:1022A0009DF8180010F001008DF81800E6D003200A
:1022B0008DF81400012305AA414630460095FEF72B
:1022C00079FF0028F6D1072307AA4146304600953A
:1022D000FEF780FE0028F6D19DF80A0000070DD415
:1022E000BDF8040024F8640FBDF806006080BDF856
:1022F0000800A08000200AB0BDE8F0810120FAE7C4
:102300000000AA43B81E12422DE9FE43074691F889
:1023100000801C2016460D468DF808004FF47A7494
:10232000012302AA414638460094FEF743FF0028E5
:10233000F6D1012301AA414638460094FEF74AFE31
:102340000028F6D19DF8040000F0E70040EAC6003E
:102350008DF80400012301AA414638460094FEF797
:1023600029FF0028F6D136B1012E07D0022E0CD05D
:10237000032E07D10CE09FED080A01E09FED070A4C
:1023800085ED080A0020BDE8FE839FED050AF7E70A
:102390009FED040AF4E700000000803800000039D7
:1023A000000080390000003A7CB504460D78192001
:1023B0008DF804008DF805204FF47A76022301AAE7
:1023C000294620460096FEF7F5FE0028F6D17CBD92
:1023D0002DE9FE43074691F800801B2016460D4666
:1023E0008DF808004FF47A74012302AA414638465A
:1023F0000094FEF7DFFE0028F6D1012301AA414632
:1024000038460094FEF7E6FD0028F6D19DF804005A
:1024100000F0E40040EAC6008DF80400012301AAA0
:10242000414638460094FEF7C5FE0028F6D136B185
:10243000012E07D0022E0CD0032E07D10CE09FED09
:10244000080A01E09FED070A85ED010A0020BDE8BA
:10245000FE839FED050AF7E79FED040AF4E700000D
:10246000FFFFF93BFFFF793CFFFFF93CFFFF793DA0
:102470002DE9FF478146102091F801A00A268DF82A
:1024800004604FF0000817460D468DF80C008DF8DB
:1024900005804FF47A74022301AA514648460094FD
:1024A000FEF788FE0028F6D10A20FEF751FB8DF8D2
:1024B00004600F208DF80500022301AA514648460A
:1024C0000094FEF777FE0028F6D10A20FEF740FBC5
:1024D000012303AA514648460094FEF76BFE0028EC
:1024E000F6D1032302AA514648460094FEF772FD36
:1024F0000028F6D19DF80800DFED2C0A803800EEA8
:10250000100AF8EEC01AB7EE000AB0EE401A01EE5B
:10251000A01A85ED131A9DF80900803801EE100A03
:10252000F8EEC11AB0EE401A01EEA01A85ED141AA9
:102530009DF80A00803801EE100AB8EEC11A01EECB
:10254000200A85ED150A8DF804608DF805800223B8
:1025500001AA514648460094FEF72CFE0028F6D109
:102560000A20FEF7F5FA06208DF8046000EB07104C
:102570008DF80500022301AA514648460094FEF753
:1025800019FE0028F6D10A20FEF7E2FA17B1012F52
:1025900007D102E09FED060A01E09FED060A85EDF6
:1025A0000F0A04B00020BDE8F08700000000803B67
:1025B00000E0BF4000E0BF3FFEE770477047704754
:1025C000FEF7C2BE30B593B030216846FDF736FE47
:1025D00014210CA8FDF732FE19480025016841F0CE
:1025E00080510160006800F080501190154801682A
:1025F00021F4404141F4004101600068022400F4EC
:102600004040119001200090000401908001CDE92C
:10261000064008AA0420542182E813000B90684663
:10262000FFF714F80CA90F2081E83100E002CDE992
:102630000F0502210CA8FEF721FF13B030BD0000EA
:1026400040380240007000401048016841F47001B9
:1026500001600F48016841F0010101600C4A00214E
:102660000832116002680B4B1A400260031D0A4ACF
:102670001A60026822F48022026005480C30016072
:1026800002495806803908607047000088ED00E074
:1026900000380240FFFFF6FE1030002410B5806BBA
:1026A0000021C185C184FFF773F910BD70B5846B3B
:1026B0002068406994F83910C0F3C0100025212922
:1026C00004D118B1E584204600F03FF82068406945
:1026D00094F83A10C0F38010222904D118B1E5858E
:1026E000204600F024F8E06B40F01000E063204644
:1026F000FFF74EF970BD10B50146806B0968096897
:10270000C9050CD40021C18401684A6922F0800205
:102710004A610068C16841F04001C16010BDFFF727
:10272000A9FA10BD10B5806BFFF7A5FA10BD0168BE
:10273000CA6822F49072CA6001684A6922F00102F4
:102740004A61202180F83A1070470168CA6822F077
:10275000C002CA60202180F83910704710B590F887
:102760003A10222901D0022010BD8168B1F5805FA6
:1027700011D00169002901681FD0496801F07F0369
:10278000816A4A1C82620B70C18D491E0904090CC2
:10279000C18518D02BE00269816A002A026852685C
:1027A00005D0D2B20A80816A491C8162ECE7C2F38B
:1027B00008020A80816A891CF7E74A68816A4B1C13
:1027C00083620A70E0E70168CA6822F02002CA60EA
:1027D0000168CA6822F48072CA6001684A6922F0FE
:1027E00001024A61202180F83A10FFF701FA002027
:1027F00010BD00002DE9F041044600680169E2685F
:1028000021F44051114301612169A068E269084344
:102810006169114322680843D16849F20C63994306
:102820000143D16020684169A26921F440711143DC
:102830004161E2696425B2F5004F974897492268E3
:102840004FF032083FD08A4201D082427CD1FEF75D
:10285000BDFE00EBC00101EB001061688900B0FB18
:10286000F1F6FEF7B3FE00EBC00101EB001061686A
:102870008900B0FBF1F0B0FBF5F06FF018014843B0
:1028800006EB800108EB0110B0FBF5F000F0F0065C
:10289000FEF79CFE00EBC00101EB001061688900AF
:1028A000B0FBF1F0B0FBF5F006EB0016FEF78EFE84
:1028B00000EBC00101EB001061688900B0FBF1F78B
:1028C000FEF784FED2E08A4201D082423DD1FEF77B
:1028D0007DFE00EBC00101EB001061684900B0FB18
:1028E000F1F0B0FBF5F00601FEF770FE00EBC00161
:1028F00001EB001061684900B0FBF1F7FEF766FEDE
:1029000000EBC00101EB001061684900B0FBF1F081
:10291000B0FBF5F06FF01801484307EB800108EBBE
:10292000C100B0FBF5F000F0F80006EB4006FEF742
:102930004DFE00EBC00101EB001061684900B0FBE7
:10294000F1F7FEF743FE3CE055E0FEF72FFE00EB0B
:10295000C00101EB001061684900B0FBF1F0B0FB71
:10296000F5F00601FEF722FE00EBC00101EB0010BE
:1029700061684900B0FBF1F7FEF718FE00EBC001FB
:1029800001EB001061684900B0FBF1F0B0FBF5F01D
:102990006FF01801484307EB800108EBC100B0FB62
:1029A000F5F000F0F80006EB4006FEF7FFFD00EB47
:1029B000C00101EB001061684900B0FBF1F7FEF7C0
:1029C000F5FD00EBC00101EB001061684900B0FBB0
:1029D000F1F0B0FBF5F06FF01801484307EB800110
:1029E00008EBC100B0FBF5F000F0070021683044AF
:1029F0008860BDE8F081FEF7D9FD00EBC00101EB76
:102A0000001061688900B0FBF1F6FEF7CFFD00EB26
:102A1000C00101EB001061688900B0FBF1F0B0FB70
:102A2000F5F06FF01801484306EB800108EB011048
:102A3000B0FBF5F000F0F006FEF7B8FD00EBC001CA
:102A400001EB001061688900B0FBF1F0B0FBF5F01C
:102A500006EB0016FEF7AAFD00EBC00101EB00102B
:102A600061688900B0FBF1F7FEF7A0FD00EBC00143
:102A700001EB001061688900B0FBF1F0B0FBF5F0EC
:102A80006FF01801484307EB800108EB0110B0FB21
:102A9000F5F000F00F00A9E700140140001001401C
:102AA00090F83910212901D0022070478168B1F5D2
:102AB000805F016A0BD04A1C02620268097851608B
:102AC000C18C491E0904090CC1840ED017E0098885
:102AD0000268C1F30801516001690029016A02D04E
:102AE000491C0162ECE7891CFBE70168CA6822F017
:102AF0008002CA600068C16841F04001C1600020E6
:102B0000704700000148FEF745BF00006400002048
:102B1000FEE700007CB5044600201D46164600294D
:102B20000BD0491ECDE90041044B6A462946304688
:102B300000F0E8F8009A002111707CBD33340008E1
:102B40000907090E002804DB00F1E02080F80014DA
:102B5000704700F00F0000F1E02080F8141D70476E
:102B600002E008C8121F08C1002AFAD17047704756
:102B7000002001E001C1121F002AFBD170470000B4
:102B80002DE9FF5F82B00021DDE90430020DDDF8A0
:102B900040B0034318D044F61050A2F2FF32424333
:102BA0001514119801281FD0A5EB0B00401C5FEAFB
:102BB000000A4FF000064E4FDFF83891B0465046FD
:102BC00015D5CAF1000413E0119801244AA3012885
:102BD00001D16FEA0B010298119AC0E90031C0E9F6
:102BE000024206B0BDE8F09FCBF10000DFE70446EB
:102BF0000021404A491842EB0450CDE9001012E090
:102C0000E00707D032463B4640464946FDF710FCF8
:102C10008046894632463B4610461946FDF708FC79
:102C200006460F466410002CEAD1DDE90401DDE917
:102C30000023BAF1000F06DAFDF7FAFB42464B46D5
:102C4000FDF7F6FB05E0FDF765FC42464B46FDF758
:102C500061FC04460E460022284BFDF7E3FC03D836
:102C60004FF0FF30014607E00022254B2046314659
:102C7000FDF737FBFDF7BDFC102409E0002C0ADB53
:102C80000A220023FDF7A2FA039B30321A55641E74
:102C900050EA0102F2D1641C039AC4F111031444F6
:102CA000119A012A03D0012208430DD10AE00843FA
:102CB00004D000204FF0110B119072E7A3EB0B052D
:102CC0006D1E0DE05B4504DD4FF0000205F10105CE
:102CD00004E003DA4FF00002A5F10105002AECD070
:102CE00002981199C0E90231C0E9004579E7000076
:102CF000000014400000F03F300000000000F043EE
:102D00000000E03F2DE9FF4F95B09B4689460646FF
:102D100000250FE2252877D100242746F84A012113
:102D2000059400E0044316F8013F203B01FA03F04C
:102D30001042F7D130782A2811D06FF02F03307865
:102D4000A0F13002092A16D8059A44F0020402EBD9
:102D5000820203EB42021044761C0590EFE759F81B
:102D6000042B0592002A03DA504244F400540590E3
:102D700044F00204761C30782E2816D116F8010F84
:102D800044F004042A280DD06FF02F023078A0F10F
:102D90003003092B09D807EB870302EB4303C7185D
:102DA000761CF3E759F8047B761C30786C280FD03A
:102DB00006DC4C2817D068280DD06A2814D104E00E
:102DC000742810D07A280FD10DE044F400140AE0E2
:102DD00044F4801401E044F440147278824202D139
:102DE00004F58014761C761C307866280BD013DC32
:102DF000582877D009DC002875D04528F6D0462819
:102E0000F4D047281AD19DE118E0632835D0642812
:102E100079D0652812D195E1702873D008DC672835
:102E2000F1D069286FD06E280DD06F2806D1B5E09B
:102E300073282CD0752875D0782874D05A461799E5
:102E400090476D1C75E1C4F30250022809D0032895
:102E50000DD0D9F8001004280DD00D6009F1040937
:102E600067E1D9F80010EA17C1E90052F6E7D9F88E
:102E700000100D80F2E70D70F0E719F8041B8DF8D3
:102E8000001000208DF80100EA46012003E059F807
:102E900004AB4FF0FF3061074FF0000102D40DE0AA
:102EA00008F101018846B9420FDA8045F8DB1AF8CB
:102EB00008100029F4D108E008F101018846814298
:102EC000FADB1AF808100029F6D105985B46A0EB4A
:102ED000080721463846179A00F094FA284400EB78
:102EE000080507E04DE029E10DE01AF8010B5A460C
:102EF00017999047B8F10108F7D25B46214638464A
:102F0000179A13E142E00A220092C4F302524FF0F2
:102F1000000A022A08D059F804CB032A4FEAEC71C0
:102F20000AD00DE029E02AE009F1070121F00702AB
:102F3000F2E802C1914609E00FFA8CFC4FEAEC710D
:102F4000042A03D14FFA8CFC4FEAEC71002907DA0E
:102F50000A460021DCF1000C61EB02012D2202E0A7
:102F6000220504D52B228DF80420012203E0E2077C
:102F700001D02022F7E7904659E00A2102E0102212
:102F80000DE010214FF0000A00910BE010224FF0ED
:102F9000000A44F004040827009203E008224FF0DE
:102FA000000A0092C4F30252022A05D059F804CB59
:102FB0000021032A08D009E009F1070121F00702E6
:102FC000F2E802C1914605E01FFA8CFC042A01D107
:102FD0000CF0FF0C4FF00008220728D5702806D00F
:102FE000009B83F0100353EA0A0305D00EE0402251
:102FF0008DF80420012208E05CEA010206D03022AC
:103000008DF804208DF8050002229046009B83F085
:10301000080353EA0A030AD15CEA010201D16207FC
:1030200005D530228DF804204FF001087F1E582866
:1030300004D034A003900EA802900DE036A0F9E76A
:1030400053466046009AFDF7C1F884460398825CB7
:103050000298401E029002705CEA0100F0D10298D2
:1030600006A9081A00F1200A600702D524F480346A
:1030700000E00127574502DDA7EB0A0000E0002031
:1030800000EB0A01009005984144401A0590E003C6
:1030900006D45B462146179A059800F0B3F905441B
:1030A000002706E001A85A46C05D179990476D1C9D
:1030B0007F1C4745F6DBE0030CD55B462146179A9B
:1030C000059800F09FF9054404E030205A4617990E
:1030D00090476D1C0099481E00900029F5DC08E01F
:1030E000029802995A460078491C02911799904714
:1030F0006D1CBAF10001AAF1010AF1DC65E10000E2
:1031000009280100303132333435363738396162BD
:103110006364656600000000303132333435363781
:1031200038394142434445460000000000F058F958
:103130000544761C307800287FF4ECAD19B02846A1
:10314000BDE8F08F620700D4062709F1070222F0DC
:10315000070CFCE80223E14603F000485FEA080C94
:1031600002D00FF2702C0DE05FEA045C02D50FF282
:10317000682C07E05FEAC47C02D00FF2602C01E00B
:10318000AFF2700C4FF0FF3823F00043CDF850C081
:1031900065280CD006DC452809D046281DD04728D4
:1031A0003DD13DE0662818D067287ED138E0002167
:1031B000112F01DB112000E0781CCDE9000106A9E8
:1031C0000EA8FFF7DDFCDDE90F010E9A0391002147
:1031D000009207F1010A04914DE04FF00040009782
:1031E000CDE9011006A90EA8FFF7CAFCDDE90F0220
:1031F00003920E9B11990022DDF80CA0009304921B
:1032000011B9791C00EB010AB7EB0A0004D4C0F134
:10321000FF3007F1010A0490AAEB0700019044E097
:10322000012F00DA01270021112F01DD112000E01C
:103230003846CDE9000106A90EA8FFF7A1FCDDE99B
:103240000F010E9A0391002104910092BA462107C2
:103250000CD40399514500DA8A46BAF1010F05DD15
:10326000009AAAF10101515C302908D0B84202DA73
:1032700010F1040F06DA0121CDE9011015E0AAF1E1
:103280000101E9E7002805DC049901440491AAEB57
:10329000000102E0411C514500DD8A460499401AB4
:1032A000401C01904FF000400290200704D4019888
:1032B000504501DBCDF8048000208DF84F000298C6
:1032C0000DF14F07B0F1004F25D02B200E90029842
:1032D0004FF0020800280CDA404202902D200E9098
:1032E00007E00A210298FCF7C7FF3031029007F887
:1032F000011DB8F10001A8F10108F2DC02980028D4
:10330000EFD1791E0E980870307800F0200040F060
:10331000450007F8020D12A8C01B00F10708149819
:10332000007800B1012000EB0A01019801EBE07187
:1033300005984144401A401E0590E00306D45B46C0
:103340002146179A059800F05DF805441498007816
:1033500018B15A46179990476D1CE00324D55B4677
:103360002146179A059800F04DF805441CE0049892
:10337000002807DBDDE90301884203DD0098405C9B
:10338000179901E0179930205A469047049805F1A3
:103390000105401C04900198401E019004D12E208C
:1033A0005A46179990476D1CBAF10001AAF1010A1B
:1033B000DDDC05E017F8010B5A46179990476D1CA4
:1033C000B8F10001A8F10108F4DC5B462146179A28
:1033D0000598ABE62D0000002B0000002000000047
:1033E0002DE9F041044600251E461746880404D402
:1033F00005E039462020B0476D1C641EF9D52846EB
:10340000BDE8F0812DE9F041044600251E469046B6
:10341000C80301D5302700E02027880404D505E043
:1034200041463846B0476D1C641EF9D52846BDE8B4
:10343000F0814A68002A06D00A68531C0B6010709D
:103440004868401E486070472DED0A8B84B0FDF738
:1034500083FFFFF7B7F8A1480024016841F080011D
:103460000160016801F080010091016841F00101F3
:103470000160016801F001010091016841F0020161
:103480000160016801F002010091016841F48001CE
:1034900001600068002200F48000009011463A208C
:1034A000FDF7BAFF3A20FDF7A9FF0022114646209A
:1034B000FDF7B2FF4620FDF7A1FF8A488849016069
:1034C0004FF4E131C0E901140C21C460C0E90441AA
:1034D0008461C461FEF7E6FA82488349543801608A
:1034E0008249C0E901144FF48041C0E903414461BD
:1034F0008461C4610462FDF707FC01210320CDE96A
:1035000000017849034640310022A1F19400FEF702
:1035100077FD00287ED076A0FDF77CF90A20FDF724
:1035200017FBDFF8C09109F140099FED788A40F65A
:10353000C41A77A0FDF76EF96A494031A1F19400F1
:10354000FEF74AFE4846D9F86C8030F9581F00EE65
:10355000101AB0F9021010ED031AF8EEC00A10EDBF
:103560000E0A60EE80BA00EE901AB0F90410F8EE80
:10357000E00A20EE80CA00EE901AB0F90610F8EECC
:10358000E00A60EE80CA00EE101AB0F90810F8EEFA
:10359000C00A10ED150A20EE809A00EE901AB0F9DC
:1035A0000A10F8EEE00A20EE80AA00EE901AB0F9B8
:1035B0000C10F8EEE00A60EE809A00EE101AB0F9F6
:1035C0000E10F8EEC00A10ED070A60EE800A60EEF9
:1035D000818A00EE901A10ED021AB0F91010F8EE80
:1035E000E00A60EE800A20EE81BA00EE901AF8EE52
:1035F000E00A20EE800A50ED010A322060EE20AA97
:10360000FDF7A6FA2CEE880A10EE100AFCF721FE50
:103610000F4600E060E02CEE080A064610EE100AA5
:10362000FCF717FE2BEE880A04460D4610EE100A32
:10363000FCF70FFE8DE8F00041EC100B3AA053ECC4
:10364000102BFDF7E7F83220FDF782FA19EE900A09
:10365000FCF7FFFD06460F461AEE100AFCF7F9FDCF
:1036600004460D4619EE100AFCF7F3FD8DE8F00054
:1036700041EC100B34A053EC102BFDF7CBF83220AB
:10368000FDF766FA1AEE900AFCF7E3FD06460F46D0
:103690001BEE100AFCF7DDFD04460D4618EE900AFD
:1036A000FCF7D7FD8DE8F00041EC100B2FA053EC98
:1036B000102BFDF7AFF83220FDF74AFA4046FCF731
:1036C000C8FD41EC100B31A053EC102BFDF7A2F814
:1036D0005046FDF73DFA2CE732A01DE73038024096
:1036E000001001406400002000540040801A0600D1
:1036F0000A0D206D707539323530206E6F7420528E
:103700006561647921200A0D0000000000007A4400
:103710000A0D2052656164204D50553932353020F4
:1037200064617461200A0D006178203D20256620C7
:103730006179203D20256620617A203D2025662084
:10374000206D670A0D0000006778203D2025662067
:103750006779203D20256620677A203D2025662058
:10376000206465672F730A0D000000006D78203D0E
:10377000202566206D79203D202566206D7A203D2C
:1037800020256620206D470A0D00000074656D70CD
:1037900065726174757265203D2025662020430A9C
:1037A0000D0000000A0D206D707539323530205241
:1037B0006561647921200A0D0000000000061016E2
:1037C00000061016000000000000000001020304C3
:1037D000060708090000000001020304FC37000886
:1037E0000000002010000000602B00080C380008CA
:1037F00010000020C8050000702B00080100000028
:0C38000010000000000000000024F40094
:040000050800019559
:00000001FF
