:020000040800F2
:10000000E0040020A9010008CB190008171200081D
:10001000C9190008B5020008DD1D00080000000035
:10002000000000000000000000000000EF190008C0
:10003000B702000800000000ED190008F1190008DF
:10004000C3010008C3010008C3010008C301000880
:10005000C3010008C3010008C3010008C301000870
:10006000C3010008C3010008C3010008C301000860
:10007000C3010008C3010008C3010008C301000850
:10008000C3010008C3010008C3010008000000000C
:10009000000000000000000000000000C301000894
:1000A000C3010008C3010008C3010008C301000820
:1000B000C3010008C3010008C3010008C301000810
:1000C000C3010008C3010008C3010008C301000800
:1000D000C3010008C3010008C301000800000000BC
:1000E000C3010008C3010008C301000800000000AC
:1000F000000000000000000000000000C301000834
:1001000000000000C3010008C3010008C30100088B
:1001100000000000000000000000000000000000DF
:10012000C3010008C3010008C3010008C30100089F
:10013000C3010008000000000000000000000000F3
:10014000000000000000000000000000C3010008E3
:10015000C3010008C3010008C3010008C30100086F
:10016000C3010008C30100080000000000000000F7
:10017000000000000000000000000000000000007F
:1001800000000000C30100080000000000000000A3
:10019000C3010008DFF80CD000F07AF800480047EF
:1001A000491E0008E0040020064880470648004732
:1001B000FEE7FEE7FEE7FEE7FEE7FEE7FEE7FEE717
:1001C000FEE7FEE7791A0008950100082DE9F05FC7
:1001D0000546002092469B468846064681464024B6
:1001E0001BE0284641464746224600F041F8534668
:1001F0005A46C01A914110D311461846224600F0C3
:1002000028F82D1A67EB01084F46224601200021ED
:1002100000F01FF817EB00094E41201EA4F1010465
:10022000DFDC484631462A464346BDE8F09FD2B25D
:1002300001E000F8012B491EFBD270470022F6E7CF
:1002400010B513460A4604461946FFF7F0FF20464C
:1002500010BD202A04DB203A00FA02F1002070478A
:100260009140C2F1200320FA03F3194390407047F4
:10027000202A04DB203A21FA02F00021704721FAFB
:1002800002F3D040C2F12002914008431946704762
:10029000064C074D06E0E06840F0010394E80700D3
:1002A00098471034AC42F6D3FFF778FFA01F000840
:1002B000C01F0008FEE7704770B5044600F0D2F892
:1002C0000546601C02D004480078044400F0CAF8D7
:1002D000401BA042FAD370BD000000202DE9F84F6A
:1002E000DFF860B100224FF001084FF0030A4FF031
:1002F0000F090BF1040E00BF0B6808FA02F423404B
:10030000A3426ED14D68022D01D0122D0ED1D50819
:1003100000EB850CDCF820505607F70E09FA07F6BB
:10032000B5430E69BE402E43CCF8206006685500E8
:100330000F790AFA05FC07F0030726EA0C06AF401E
:10034000374307604E68012E05D0022E03D0112ED0
:1003500001D0122E0ED18668CF6826EA0C06AF4077
:10036000374387604668A6430C79C4F30014944071
:1003700034434460C6688C6826EA0C06AC403443BB
:10038000C4604C68E40056D52F4C256845F4804580
:100390002560246822F0030504F4804400942B4C6B
:1003A0002E19D6F8084895072F0F09FA07F5AC4320
:1003B000274DA84201D1002515E0264DA84201D1C4
:1003C000012510E0244DA84201D102250BE0234D68
:1003D000A84201D1032506E0214DA84202D10425FF
:1003E00001E028E00725BD402543C6F80858DBF8A2
:1003F00000405D464E689C43F60300D51C432C60CC
:10040000DEF8004075464E689C43B60300D51C4399
:100410002C600C4D08352C684E689C43F60200D5C4
:100420001C432C60074D0C352C684E689C43B6026B
:1004300000D51C432C60521C102AFFF45DAFBDE8B0
:10044000F88F0000003C0140443802400030014079
:10045000000002400004024000080240000C02407C
:100460000010024001488068704700000000002032
:1004700070B5040004D094F83D00002510B106E0EA
:10048000012070BD84F83C50204600F0B5FA2420CD
:1004900084F83D002068016821F00101016000F04E
:1004A00003FC33492268B0FBF1F15160314A6368C3
:1004B000934206D94FF4967359434FF47A73B1FBC4
:1004C000F3F12368491C1962616891420BD8490015
:1004D000B0FBF1F2C2F30B02042A01D2042019E0AE
:1004E000B0FBF1F016E0A3689BB301EBC10202EB95
:1004F0000112B0FBF2F242F48042120530D04BB34D
:1005000001EBC10202EB0111B0FBF1F040F48040BD
:1005100040F400402168C861D4E90701084321681C
:100520000860D4E90310084321688860D4E9050114
:1005300008432168C8602068016841F0010101603A
:100540002564202084F83D00256384F83E50002077
:1005500070BD00E006E001EB4102B0FBF2F2CCE737
:100560000120D7E701EB4101B0FBF1F0D0E700003B
:1005700040420F00A08601002DE9FF4F81B099464F
:100580008B4604464FF00108FFF76CFF054694F8D0
:100590003D0020287BD1192301224D49204600959A
:1005A00000F02FFF002872D194F83C0001286ED093
:1005B000012084F83C0020680168C90703D1016864
:1005C00041F0010101602068016821F400610160CF
:1005D000242084F83D00002626643E48E06220275F
:1005E0002068016841F4807101604B4600224FF0A1
:1005F00001112046009500F004FF002858D1216821
:100600000BF0FE000861FFF72DFF216805464869E1
:100610004969C0F3400094F83D20C1F380214FF0B8
:10062000A00A12E0B9F1000F04D0FFF71BFF411B35
:10063000494501D984F83DA0216848694969C0F35A
:10064000400094F83D20C1F38021084301D1A02A45
:10065000E8D184F83D7020684169C943890717D4FF
:10066000016841F4007101602068416980691923C3
:10067000012217492046009500F0C3FEC0B984F856
:100680003D7084F83C60002005B0BDE8F08F1DE0AF
:10069000016841F40071016021686FF48060486175
:1006A000192301220A492046009500F0AAFE08B14C
:1006B0000320E9E74146039808F1010881428FD3FE
:1006C00084F83D7084F83C600120DDE70220DBE720
:1006D000020010000000FFFF2DE9F84F1F46904672
:1006E0008A460446DDF82890FFF7BCFE054694F8DC
:1006F0003D0020286FD1192301226E492046009524
:1007000000F07FFE0028F5D194F83C00012862D06B
:10071000012084F83C0020680168C90703D1016802
:1007200041F0010101602068016821F4006101606D
:10073000222084F83D00102084F83E000026266424
:10074000C4F8248067855C48E062608D20852B4674
:100750004A465146204600F073FD28B1206C84F8CB
:100760003C60042841D04DE0208D544F68B10128F1
:1007700014D002282068016816D041F4806101601D
:10078000206841698069009085E02068416981693D
:100790000091016841F4007101607CE0206801680B
:1007A00021F480610160F0E721F48061016020683C
:1007B000016841F40061E2E7032849D801280BD021
:1007C000022817D04B46002239462046009500F0FB
:1007D00018FEB8B92AE06AE02A464946204600F0E9
:1007E00085FE28B1206C20280CD00120BDE8F88FB0
:1007F000206845E04B46002239462046009500F02F
:1008000000FE08B10320F1E72068016841F400719F
:10081000016020680169606A421C62620170208D7B
:10082000401E2085608D401E6085E1E720680168DC
:1008300021F48061016020680169606A421C626283
:100840000170208D401E2085608D401E6085D1E79F
:100850002A464946204600F049FE0028C2D12068B9
:100860000269606A411C61620270208D401E208511
:10087000608D401E608520684169C94349070AD4DC
:100880000169606A421C62620170208D401E2085F1
:10089000608D401E6085208D00288DD1202084F839
:1008A0003D0084F83E6084F83C6000209EE7022012
:1008B0009CE70000020010000000FFFF04000100A0
:1008C0002DE9F84F1F4690468A460446DDF82890E9
:1008D000FFF7C8FD064694F83D0020287ED1192375
:1008E000012243492046009600F08BFD00287DD16F
:1008F00094F83C00012879D0012084F83C0020685D
:100900000168C90703D1016841F001010160206855
:10091000016821F400610160212084F83D0010206D
:1009200084F83E0000252564C4F82480678531489A
:10093000E062608D208533464A465146204600F0ED
:10094000EFFC28B1206C84F83C5004284CD00DE01A
:10095000206841698069009030E03246494620466F
:1009600000F0F5FD28B1206C042838D00320BDE844
:10097000F88F606A411C6162216800780861608DAF
:10098000401E6085208D401E80B2208521684A6906
:10099000D24352070BD450B1606A421C62620078A5
:1009A0000861608D401E6085208D401E2085324686
:1009B0004946204600F0FEFC0028D4D1208D0028B6
:1009C000CBD154F83D0B016841F400710160202047
:1009D00004F81E09E57765770020C8E706E020687F
:1009E000016841F4007101600120C0E70220BEE708
:1009F000020010000000FFFF10B586B0044614216D
:100A00006846FFF71BFC13492068884220D1124832
:100A1000016841F0020101600068694600F00200CF
:100A20000590C02000901220019001200290032028
:100A30000390042004900948FFF750FC064810304A
:100A4000016841F400110160006800F40010059095
:100A500006B010BD0054004030380240000402408F
:100A600002488168027811448160704700000020CC
:100A70000B4810B5016841F400710160016841F450
:100A800080610160016841F480710160032000F021
:100A900061F8002000F006F800F024F8002010BDF6
:100AA000003C024070B50D4D04464FF47A71287831
:100AB000B1FBF0F00A490968B1FBF0F000F0D2FA9E
:100AC00048B9102C07D200222146501E00F022F80F
:100AD00000206C6070BD012070BD0000000000208F
:100AE0000C0000200A4808B5016841F4804101600B
:100AF000006800F4804000900548001F016841F044
:100B000080510160006800F08050009008BD000036
:100B100044380240F0B40E4B1B680C46C3F302236A
:100B2000C3F10705042D00D90425191D072901D299
:100B3000002300E0DB1E012606FA05F1491E2140D4
:100B400099409E40761E16403143F0BC00F03EBFF7
:100B50000CED00E0064900F0070208684FF6FF03BD
:100B6000184040EA0220034A104308607047000022
:100B70000CED00E00000FA052DE9F0470E460500F7
:100B800065D0DFF81481D8F80000F7B200F00F004C
:100B9000B04207D288F80070D8F8000000F00F00CB
:100BA000B04254D128683D4C810712D5400703D587
:100BB000206840F4E05020602878000703D52068C2
:100BC00040F4604020602068A96820F0F0000843ED
:100BD00020602878C0072DD030496868083901287E
:100BE00012D0022813D0032811D0096889070029E0
:100BF0002DDA216821F0030101432160FFF732FC67
:100C0000814641F2883A0EE009688903EFE70968F6
:100C10008901ECE7FFF726FCA0EB0901514502D959
:100C20000320BDE8F0872068696800F00C00B0EB95
:100C3000810FEFD1D8F80010404601F00F01B1420A
:100C400007D90770006800F00F00B04201D0012002
:100C5000E7E72878400705D52068E96820F4E050E8
:100C6000084320602878000706D52068296920F409
:100C7000604040EAC100206000F036F82168084A70
:100C8000C1F30311515CC840064908600020FFF71A
:100C900009FF0020C5E70000003C02400838024080
:100CA000881F00080C0000200448054900680968F6
:100CB000044AC1F38221515CC84070470C000020F7
:100CC00008380240981F0008044805490068096870
:100CD000044AC1F34231515CC84070470C00002007
:100CE00008380240981F0008154810B5006810F039
:100CF0000C02144813D04110042A0FD0082A0ED138
:100D00000F4C241F2268236802F03F025B0207D5C4
:100D10002068C0F38810A0FB010106E0084610BD62
:100D20002168C1F38811A1FB00010023FFF74EFAEF
:100D30002168C1F30141491C4900B0FBF1F010BD2D
:100D4000083802400024F4002DE9F84F050076D061
:100D50002878DFF8F8B2BE4CC00749D0DBF80010A5
:100D60005846C1F38101012908D00068C0F3810011
:100D700002280AD1201D0068400206D520688003A1
:100D800036D568680028E2D032E06868B0F5803F68
:100D900010D0B0F5A02F206810D020F48030206053
:100DA000206820F4802020606868A0B1FFF75AFB1B
:100DB00006460CE0206840F48030F4E740F48020E0
:100DC0002060F7E7FFF74EFB801B642873D820688C
:100DD0008003F7D50CE0FFF745FB064605E000BFB2
:100DE000FFF740FB801B6428F0D820688003F7D40D
:100DF0002878DFF8608280074FF000093ED5DBF8E5
:100E00000010584611F00C0F09D00068C0F38100A3
:100E100002280BD18D48001F0068400206D42068CC
:100E2000800715D5E868012809D111E0E868B8B154
:100E30000120C8F80000FFF715FB064605E002E1B7
:100E4000FFF710FB801B0228C0D820688007F7D569
:100E50002068296920F0F80040EAC10020600DE018
:100E6000C8F80090FFF7FEFA064604E0FFF7FAFA2A
:100E7000801B02281FD820688007F7D42878000735
:100E800022D5724E744869696C3671B101210160D6
:100E9000FFF7E8FA074604E0FFF7E4FAC01B022870
:100EA00009D830688007F7D50EE0C0F80090FFF74A
:100EB000D9FA074605E083E0FFF7D4FAC01B022801
:100EC0007ED830688007F7D42878400768D5DFF8E7
:100ED0007CA100270AF1380ADAF80000C0000BD420
:100EE000DAF8001041F08051CAF80010DAF800007A
:100EF000012700F080500090584E3068C00510D493
:100F0000306840F480703060FFF7ACFA009005E084
:100F1000FFF7A8FA0099401A022851D83068C00596
:100F2000F6D54A4EA868683601280FD005283068E3
:100F300010D020F001003060306820F004003060F4
:100F4000A868B8B1FFF78EFA00900FE0306840F063
:100F50000100F4E740F004003060F7E7FFF782FAA1
:100F60000099411A41F28830814264D83068800784
:100F7000F4D50EE0FFF776FA009007E0FFF772FA7B
:100F80000099411A41F28830814254D83068800774
:100F9000F4D42FB1DAF8001021F08051CAF8001013
:100FA000A869C0B3DBF80010C1F3810102294AD05F
:100FB0000228484607D0C8F86000FFF753FA00E05F
:100FC00039E005463AE04746C8F86000FFF74AFABC
:100FD000064604E0FFF746FA801B02282BD820685B
:100FE0008001F7D4D5E907010843A96A1C4A4908DA
:100FF00002EB01416A6A41EA8211084395F82C101C
:1010000040EA01611148001F016001203866FFF7C6
:1010100029FA054605E014E0FFF724FA401B0228F0
:1010200009D820688001F7D50BE000BFFFF71AFA56
:10103000401B022802D90320BDE8F88F20688001F8
:10104000F4D40020F8E70120F6E700000838024059
:101050000038024000004742800E474200700040C6
:101060000000FFFF10B5401EB0F1807F01D30120CA
:1010700010BD4FF0E02460610F21601700F0A6FC66
:101080000020A06107202061002010BD70B5040081
:1010900004D094F83900002510B106E0012070BD9D
:1010A00084F83850204600F023F8242084F83900D2
:1010B0002068C16821F40051C160204600F006FD9F
:1010C0002068016921F4904101612068416921F0A3
:1010D0002A0141612068C16841F40051C160E563A3
:1010E000202084F8390084F83A00002070BD000008
:1010F00010B586B0044614216846FFF79FF81449DE
:101100002068884221D11348016841F01001016034
:10111000006800F0100005900E481438016841F096
:10112000010101600068694600F0010005904FF47C
:10113000C0600090022001900120029003200390E3
:10114000072004900448FFF7C9F806B010BD00005E
:101150000010014044380240000002402DE9F843ED
:10116000044690F839001F4616460D46202850D1F7
:10117000A5B19EB194F8380001284AD0012084F826
:1011800038004FF00008C4F83C80212084F8390072
:10119000FFF768F9A6848146E68426E00120BDE8D1
:1011A000F883E08C401EE084A0684B46B0F5805F79
:1011B0004FF000024FF080012046009703D000F06E
:1011C000DBFDE8B90DE000F0D7FDC8B9288821683B
:1011D000C0F308004860206908B16D1C05E0AD1C33
:1011E00003E0216815F8010B4860E08C0028D8D195
:1011F0004B46002240212046009700F0BDFD08B17B
:101200000320CCE7202084F8390084F838800020BF
:10121000C5E70220C3E7FEE701684A69D2435205E9
:101220000CD46FF480624A6104210164002140F80B
:10123000301F202242730173012070470020704745
:101240002DE9F84F0446C06A1E4692460D462168B5
:101250000A6842F480620A60042807D0012805D099
:1012600010F5803F02D0206B112804D1206801685E
:1012700041F4807101604FF001185346002241464D
:101280002046009600F0BDF8B8BB206908F10109BE
:10129000B0F5804F12D00620216800EAD51747F03C
:1012A000F00008613346524608F10701204600F07D
:1012B000D9F838B1206C04282FD01EE0E8B240F0F5
:1012C00001001FE02168E8B20861334652464946F2
:1012D000204600F0C7F80028ECD1206841698169F8
:1012E0000091016841F4807101605346002241463B
:1012F0002046009600F085F810B10320BDE8F88F75
:1013000047F0F100216808613346524649462046BD
:1013100000F0A8F80028CDD1F0E70120EEE70000AA
:10132000F8B50446C06A1E460D461746042807D085
:10133000012805D010F5803F02D0206B122804D17F
:101340002068016841F480710160134600224FF06B
:1013500001112046009600F054F8A0B92069B0F5BC
:10136000804F12D00620216800EAD51040F0F0002E
:10137000086133463A460E49204600F073F838B10A
:10138000206C042811D00320F8BD05F0FE0000E019
:10139000E8B221680861064933463A46891F20466B
:1013A00000F060F80028EBD1F8BD0120F8BD000086
:1013B0000800010070B516460D4604461AE02046A6
:1013C000FFF72AFF08B1012070BD681C12D025B1BB
:1013D000FFF748F8801BA8420CD954F8400F40F0A2
:1013E000200044F810090020206020216173207340
:1013F000032070BD20684069C0434007DFD400204F
:1014000070BD2DE9F0471E4690460D460446C1F3D7
:101410000747DDF8209012E0701C10D02EB1FFF7C6
:1014200021F8A0EB0900B04209D9002044F8300FA0
:1014300020216173A07320730320BDE8F08720682A
:10144000012F0AD0806925EA00000004000C06D0B4
:1014500000214145E0D00020EFE74069F3E701219A
:10146000F7E700002DE9F0479A4691460D460446FD
:1014700000264FF02008C1F307472AE020684069A2
:10148000C043400512D42068016841F40071016036
:1014900021686FF48060486104202064266384F82A
:1014A0003D8084F83C600120BDE8F087B9F1FF3F42
:1014B0000FD0B9F1000F05D0FEF7D4FFA0EB0A0161
:1014C000494506D944F8306F84F80D80267303200F
:1014D000EAE72068012F07D0D0F8180025EA0000BD
:1014E0000004000CE0D0C9E74069F7E72DE9F041BE
:1014F000002590460E460446202721E04069C0435F
:10150000C0060CD421686FF0100048612564256383
:1015100084F83D7084F83C500120BDE8F0812EB184
:10152000FEF7A0FFA0EB0800B04209D954F8400F25
:1015300040F0200044F80409677025700320ECE7B0
:1015400020684169C9434906D8D40020E5E770B551
:1015500016460D4604461AE02046FFF75DFE08B128
:10156000012070BD681C12D025B1FEF77BFF801BE7
:10157000A8420CD954F8400F40F0200044F810095C
:1015800000202060202161732073032070BD20683B
:101590004069C0430006DFD4002070BD2DE9F04F44
:1015A00089B0814675208DF80C001D208DF814003F
:1015B00042F0D000DDF84CB000278DF8107042F0FA
:1015C000180608700D464E709A468046014605235F
:1015D00002224846FEF7D0FF00286FD14FF47A74FC
:1015E000012303AA414648460094FFF769F9002801
:1015F00064D1012306AA414648460094FFF76CF8DF
:1016000000285BD137208DF8040002208DF80500FA
:10161000034601AA414648460094FFF751F9E8BB4A
:101620000523022231464846FEF7A6FFB0BB012340
:1016300004AA314648460094FFF742F970BB0123E3
:1016400007AA314648460094FFF746F830BB03E04E
:10165000032009B0BDE8F08F9DF818007128F7D17C
:101660009DF81C004828F3D16B268DF804608DF896
:101670000570022301AA414648460094FFF720F96D
:1016800060B98DF8046001208DF80500022301AADD
:10169000414648460094FFF713F900E00EE068B9B0
:1016A0001A208DF8040003208DF80500022301AAFA
:1016B000414648460094FFF703F908B10120C8E706
:1016C00004222946484600F083F8524629464846F7
:1016D00000F02EF8012305AA414648460094FFF782
:1016E000EFF80028F6D1012302AA414648460094AB
:1016F000FEF7F2FF0028F6D19DF8080000F0F00098
:10170000C01C8DF80800012302AA414648460094F7
:10171000FFF7D6F80028F6D129464846129A00F07D
:101720006BF85A462946484600F0B6F8002090E784
:101730002DE9FE43074691F800801C2016460D4611
:101740008DF808004FF47A74012302AA4146384606
:101750000094FFF7B5F80028F6D1012301AA41460D
:1017600038460094FEF7B8FF0028F6D19DF8040033
:1017700000F0E70040EAC6008DF80400012301AA4A
:10178000414638460094FFF79BF80028F6D136B161
:10179000012E07D0022E0CD0032E07D10CE09FEDB6
:1017A000080A01E09FED070A85ED020A0020BDE866
:1017B000FE839FED050AF7E79FED040AF4E70000BA
:1017C0000000803800000039000080390000003A35
:1017D0007CB504460D7819208DF804008DF805209D
:1017E0004FF47A76022301AA294620460096FFF795
:1017F00067F80028F6D17CBD2DE9FE43074691F835
:1018000000801B2016460D468DF808004FF47A74B0
:10181000012302AA414638460094FFF751F80028F8
:10182000F6D1012301AA414638460094FEF754FF41
:101830000028F6D19DF8040000F0E40040EAC6005C
:101840008DF80400012301AA414638460094FFF7B1
:1018500037F80028F6D136B1012E07D0022E0CD071
:10186000032E07D10CE09FED080A01E09FED070A67
:1018700085ED010A0020BDE8FE839FED050AF7E72C
:101880009FED040AF4E70000FFFFF93BFFFF793CFE
:10189000FFFFF93CFFFF793D2DE9FF47814610200E
:1018A00091F801A00A268DF804604FF00008174651
:1018B0000D468DF80C008DF805804FF47A740223E4
:1018C00001AA514648460094FEF7FAFF0028F6D1D7
:1018D0008DF804600F208DF80500022301AA5146FF
:1018E00048460094FEF7ECFF0028F6D1012303AA36
:1018F000514648460094FEF7E3FF0028F6D1032343
:1019000002AA514648460094FEF7E6FE0028F6D1AA
:101910009DF80800DFED290A803800EE100AF8EE85
:10192000C01AB7EE000AB0EE401A01EEA01A85ED1B
:10193000041A9DF80900803801EE100AF8EEC11A69
:10194000B0EE401A01EEA01A85ED051A9DF80A00C6
:10195000803801EE100AB8EEC11A01EE200A85EDBA
:10196000060A8DF804608DF80580022301AA51460D
:1019700048460094FEF7A4FF0028F6D104208DF815
:10198000046000EB07108DF80500022301AA514600
:1019900048460094FEF794FF0028F6D117B1012FB6
:1019A00007D102E09FED060A01E09FED060A85EDF2
:1019B000030A04B00020BDE8F08700000000803B6F
:1019C00000E0BF4000E0BF3FFEE770470907090E97
:1019D000002806DA00F00F0000F1E02080F8141D66
:1019E000704700F1E02080F800147047704770479E
:1019F000FFF736B830B593B030216846FEF71EFCCD
:101A000014210CA8FEF71AFC19480025016841F0C2
:101A100080510160006800F0805011901548016805
:101A200021F4404141F4004101600068022400F4C7
:101A30004040119001200090000401908001CDE908
:101A4000064008AA0420542182E813000B9068463F
:101A5000FFF77AF90CA90F2081E83100E002CDE907
:101A60000F0507210CA8FFF787F813B030BD000061
:101A700040380240007000401048016841F4700195
:101A800001600F48016841F0010101600C4A00212A
:101A90000832116002680B4B1A400260031D0A4AAB
:101AA0001A60026822F48022026005480C3001604E
:101AB00002495806803908607047000088ED00E050
:101AC00000380240FFFFF6FE103000242DE9F041FF
:101AD00004460068016921F44052E1681143016144
:101AE0002168C86849F20C6290432369A268E569DD
:101AF0001A4363692B431A430243CA602168486949
:101B000020F44072A06910434861E1696425B1F591
:101B1000004F9748974A21684FF032083FD09142D2
:101B200001D081427CD1FFF7CFF800EBC00101EB7F
:101B3000001061688900B0FBF1F6FFF7C5F800EB13
:101B4000C00101EB001061688900B0FBF1F0B0FB4F
:101B5000F5F06FF01801484306EB800108EB011027
:101B6000B0FBF5F000F0F006FFF7AEF800EBC001B7
:101B700001EB001061688900B0FBF1F0B0FBF5F0FB
:101B800006EB0016FFF7A0F800EBC00101EB001018
:101B900061688900B0FBF1F7FFF796F8D2E0914257
:101BA00001D081423DD1FFF78FF800EBC00101EB7E
:101BB000001061684900B0FBF1F0B0FBF5F00601E0
:101BC000FFF782F800EBC00101EB001061684900EB
:101BD000B0FBF1F7FFF778F800EBC00101EB001064
:101BE00061684900B0FBF1F0B0FBF5F06FF018014F
:101BF000484307EB800108EBC100B0FBF5F000F0B3
:101C0000F80006EB4006FFF75FF800EBC00101EBC0
:101C1000001061684900B0FBF1F7FFF755F83CE0B0
:101C200055E0FFF741F800EBC00101EB00106168DF
:101C30004900B0FBF1F0B0FBF5F00601FFF734F816
:101C400000EBC00101EB001061684900B0FBF1F747
:101C5000FFF72AF800EBC00101EB001061684900B2
:101C6000B0FBF1F0B0FBF5F06FF01801484307EB63
:101C7000800108EBC100B0FBF5F000F0F80006EBC6
:101C80004006FFF711F800EBC00101EB001061689E
:101C90004900B0FBF1F7FFF707F800EBC00101EBDB
:101CA000001061684900B0FBF1F0B0FBF5F06FF097
:101CB0001801484307EB800108EBC100B0FBF5F0C9
:101CC00000F00700216830448860BDE8F081FEF72D
:101CD000EBFF00EBC00101EB001061688900B0FB75
:101CE000F1F6FEF7E1FF00EBC00101EB00106168C7
:101CF0008900B0FBF1F0B0FBF5F06FF0180148433C
:101D000006EB800108EB0110B0FBF5F000F0F006E7
:101D1000FEF7CAFF00EBC00101EB0010616889000B
:101D2000B0FBF1F0B0FBF5F006EB0016FEF7BCFFE0
:101D300000EBC00101EB001061688900B0FBF1F716
:101D4000FEF7B2FF00EBC00101EB001061688900F3
:101D5000B0FBF1F0B0FBF5F06FF01801484307EB72
:101D6000800108EB0110B0FBF5F000F00F00A9E7CF
:101D700000140140001001402DE9F041984617463B
:101D80000E460446069D1DE0681C1BD02DB1FEF7D3
:101D900069FBA0EB0800A84214D92068C16821F4AF
:101DA000D071C1602068416921F0010141612020AA
:101DB00084F8390084F83A00002084F838000320C1
:101DC000BDE8F0812068006836EA000004D00020F9
:101DD000B842D9D00020F3E70120F9E7FEE7000080
:101DE000014A024900F013B8311E0008100000201B
:101DF00002E008C8121F08C1002AFAD170477047D4
:101E0000002001E001C1121F002AFBD170472DE91B
:101E1000F04116460F460446002503E03946B04718
:101E2000641C6D1C20780028F8D12846BDE8F0819C
:101E300013B54FF6FF73012269460248FFF78EF98A
:101E400000981CBD680000201CB50025FEF710FEA0
:101E5000FFF7D0FD30480024016841F080010160A7
:101E6000016801F080010091016841F00101016009
:101E7000016801F001010091016841F00201016077
:101E80000068264900F002000090254801604FF4E8
:101E9000E131C0E901140C21C460C0E9044184614E
:101EA000C461FFF7F3F81E481E495438016042F23E
:101EB0001071C0E901144FF48041C0E9034144614D
:101EC0008461C4610462FEF7D3FA01210320CDE9E5
:101ED00000011349034640310022A1F19400FFF7AD
:101EE0005DFB18B110A0FFF77BFF08E0012513A0F0
:101EF000FFF776FF0CA0FFF773FF16A000E01BA012
:101F0000FFF76EFF4FF47A70FEF7D6F906A0FFF7E1
:101F100067FF012DF3D1F0E7303802400010014097
:101F200068000020005400400A0D20537973746546
:101F30006D20526561647921200A0D000A0D204D43
:101F400050553932353020526561647921200A0DAF
:101F5000000000000A0D206D7075393235302052B6
:101F60006561647921200A0D000000000A0D206DD2
:101F7000707539323530206E6F7420526561647926
:101F800021200A0D000000000000000000000000F9
:101F9000010203040607080900000000010203040F
:101FA000C01F00080000002014000000F01D000801
:101FB000D41F000814000020CC040000001E0008FC
:101FC0000100000010000000000000000024F400E8
:041FD000000000000D
:040000050800019559
:00000001FF
